{
  "_format": "hh-sol-artifact-1",
  "contractName": "EpochPrizePool",
  "sourceName": "contracts/EpochPrizePool.sol",
  "abi": [
    {
      "inputs": [
        {
          "internalType": "contract AaveIntegration",
          "name": "_aave",
          "type": "address"
        },
        {
          "internalType": "uint256",
          "name": "_epochDuration",
          "type": "uint256"
        },
        {
          "internalType": "uint256",
          "name": "_feeBps",
          "type": "uint256"
        },
        {
          "internalType": "uint256",
          "name": "_numWinners",
          "type": "uint256"
        },
        {
          "internalType": "uint256",
          "name": "_decayBps",
          "type": "uint256"
        }
      ],
      "stateMutability": "nonpayable",
      "type": "constructor"
    },
    {
      "inputs": [],
      "name": "ECDSAInvalidSignature",
      "type": "error"
    },
    {
      "inputs": [
        {
          "internalType": "uint256",
          "name": "length",
          "type": "uint256"
        }
      ],
      "name": "ECDSAInvalidSignatureLength",
      "type": "error"
    },
    {
      "inputs": [
        {
          "internalType": "bytes32",
          "name": "s",
          "type": "bytes32"
        }
      ],
      "name": "ECDSAInvalidSignatureS",
      "type": "error"
    },
    {
      "inputs": [],
      "name": "EnforcedPause",
      "type": "error"
    },
    {
      "inputs": [],
      "name": "EpochNotFinalized",
      "type": "error"
    },
    {
      "inputs": [],
      "name": "EpochNotOpen",
      "type": "error"
    },
    {
      "inputs": [],
      "name": "ExpectedPause",
      "type": "error"
    },
    {
      "inputs": [],
      "name": "InvalidParam",
      "type": "error"
    },
    {
      "inputs": [],
      "name": "NothingToClaim",
      "type": "error"
    },
    {
      "inputs": [
        {
          "internalType": "address",
          "name": "owner",
          "type": "address"
        }
      ],
      "name": "OwnableInvalidOwner",
      "type": "error"
    },
    {
      "inputs": [
        {
          "internalType": "address",
          "name": "account",
          "type": "address"
        }
      ],
      "name": "OwnableUnauthorizedAccount",
      "type": "error"
    },
    {
      "inputs": [],
      "name": "ReentrancyGuardReentrantCall",
      "type": "error"
    },
    {
      "anonymous": false,
      "inputs": [
        {
          "indexed": true,
          "internalType": "address",
          "name": "aave",
          "type": "address"
        }
      ],
      "name": "AaveIntegrationSet",
      "type": "event"
    },
    {
      "anonymous": false,
      "inputs": [
        {
          "indexed": true,
          "internalType": "address",
          "name": "user",
          "type": "address"
        },
        {
          "indexed": true,
          "internalType": "uint256",
          "name": "epochId",
          "type": "uint256"
        },
        {
          "indexed": false,
          "internalType": "uint256",
          "name": "amount",
          "type": "uint256"
        }
      ],
      "name": "Claimed",
      "type": "event"
    },
    {
      "anonymous": false,
      "inputs": [
        {
          "indexed": false,
          "internalType": "uint256",
          "name": "epochDuration",
          "type": "uint256"
        },
        {
          "indexed": false,
          "internalType": "uint256",
          "name": "feeBps",
          "type": "uint256"
        },
        {
          "indexed": false,
          "internalType": "uint256",
          "name": "numWinners",
          "type": "uint256"
        },
        {
          "indexed": false,
          "internalType": "uint256",
          "name": "decayBps",
          "type": "uint256"
        }
      ],
      "name": "ConfigUpdated",
      "type": "event"
    },
    {
      "anonymous": false,
      "inputs": [
        {
          "indexed": true,
          "internalType": "address",
          "name": "user",
          "type": "address"
        },
        {
          "indexed": true,
          "internalType": "uint256",
          "name": "epochId",
          "type": "uint256"
        },
        {
          "indexed": false,
          "internalType": "uint256",
          "name": "amount",
          "type": "uint256"
        }
      ],
      "name": "Deposited",
      "type": "event"
    },
    {
      "anonymous": false,
      "inputs": [
        {
          "indexed": true,
          "internalType": "uint256",
          "name": "epochId",
          "type": "uint256"
        },
        {
          "indexed": false,
          "internalType": "uint256",
          "name": "S",
          "type": "uint256"
        },
        {
          "indexed": false,
          "internalType": "uint256",
          "name": "Y",
          "type": "uint256"
        },
        {
          "indexed": false,
          "internalType": "uint256",
          "name": "fee",
          "type": "uint256"
        },
        {
          "indexed": false,
          "internalType": "uint256",
          "name": "R",
          "type": "uint256"
        },
        {
          "indexed": false,
          "internalType": "uint256",
          "name": "P",
          "type": "uint256"
        }
      ],
      "name": "EpochClosed",
      "type": "event"
    },
    {
      "anonymous": false,
      "inputs": [
        {
          "indexed": true,
          "internalType": "uint256",
          "name": "epochId",
          "type": "uint256"
        }
      ],
      "name": "EpochFinalized",
      "type": "event"
    },
    {
      "anonymous": false,
      "inputs": [
        {
          "indexed": true,
          "internalType": "uint256",
          "name": "epochId",
          "type": "uint256"
        },
        {
          "indexed": false,
          "internalType": "uint64",
          "name": "startTime",
          "type": "uint64"
        },
        {
          "indexed": false,
          "internalType": "uint64",
          "name": "endTime",
          "type": "uint64"
        }
      ],
      "name": "EpochStarted",
      "type": "event"
    },
    {
      "anonymous": false,
      "inputs": [
        {
          "indexed": true,
          "internalType": "address",
          "name": "to",
          "type": "address"
        },
        {
          "indexed": false,
          "internalType": "uint256",
          "name": "amount",
          "type": "uint256"
        }
      ],
      "name": "FeeWithdrawn",
      "type": "event"
    },
    {
      "anonymous": false,
      "inputs": [
        {
          "indexed": true,
          "internalType": "address",
          "name": "previousOwner",
          "type": "address"
        },
        {
          "indexed": true,
          "internalType": "address",
          "name": "newOwner",
          "type": "address"
        }
      ],
      "name": "OwnershipTransferred",
      "type": "event"
    },
    {
      "anonymous": false,
      "inputs": [
        {
          "indexed": false,
          "internalType": "address",
          "name": "account",
          "type": "address"
        }
      ],
      "name": "Paused",
      "type": "event"
    },
    {
      "anonymous": false,
      "inputs": [
        {
          "indexed": false,
          "internalType": "address",
          "name": "account",
          "type": "address"
        }
      ],
      "name": "Unpaused",
      "type": "event"
    },
    {
      "anonymous": false,
      "inputs": [
        {
          "indexed": true,
          "internalType": "address",
          "name": "user",
          "type": "address"
        },
        {
          "indexed": true,
          "internalType": "uint256",
          "name": "epochId",
          "type": "uint256"
        },
        {
          "indexed": false,
          "internalType": "uint256",
          "name": "amount",
          "type": "uint256"
        }
      ],
      "name": "WinnerPaid",
      "type": "event"
    },
    {
      "anonymous": false,
      "inputs": [
        {
          "indexed": true,
          "internalType": "address",
          "name": "signer",
          "type": "address"
        }
      ],
      "name": "WinnerSignerUpdated",
      "type": "event"
    },
    {
      "anonymous": false,
      "inputs": [
        {
          "indexed": true,
          "internalType": "uint256",
          "name": "epochId",
          "type": "uint256"
        },
        {
          "indexed": false,
          "internalType": "address[]",
          "name": "winners",
          "type": "address[]"
        }
      ],
      "name": "WinnersSet",
      "type": "event"
    },
    {
      "inputs": [],
      "name": "aave",
      "outputs": [
        {
          "internalType": "contract AaveIntegration",
          "name": "",
          "type": "address"
        }
      ],
      "stateMutability": "view",
      "type": "function"
    },
    {
      "inputs": [
        {
          "internalType": "uint256",
          "name": "",
          "type": "uint256"
        },
        {
          "internalType": "address",
          "name": "",
          "type": "address"
        }
      ],
      "name": "allocationOf",
      "outputs": [
        {
          "internalType": "uint256",
          "name": "",
          "type": "uint256"
        }
      ],
      "stateMutability": "view",
      "type": "function"
    },
    {
      "inputs": [
        {
          "internalType": "uint256",
          "name": "epochId",
          "type": "uint256"
        }
      ],
      "name": "claim",
      "outputs": [],
      "stateMutability": "nonpayable",
      "type": "function"
    },
    {
      "inputs": [
        {
          "internalType": "uint256",
          "name": "_epochDuration",
          "type": "uint256"
        },
        {
          "internalType": "uint256",
          "name": "_feeBps",
          "type": "uint256"
        },
        {
          "internalType": "uint256",
          "name": "_numWinners",
          "type": "uint256"
        },
        {
          "internalType": "uint256",
          "name": "_decayBps",
          "type": "uint256"
        }
      ],
      "name": "configure",
      "outputs": [],
      "stateMutability": "nonpayable",
      "type": "function"
    },
    {
      "inputs": [],
      "name": "currentEpochId",
      "outputs": [
        {
          "internalType": "uint256",
          "name": "",
          "type": "uint256"
        }
      ],
      "stateMutability": "view",
      "type": "function"
    },
    {
      "inputs": [],
      "name": "decayBps",
      "outputs": [
        {
          "internalType": "uint256",
          "name": "",
          "type": "uint256"
        }
      ],
      "stateMutability": "view",
      "type": "function"
    },
    {
      "inputs": [],
      "name": "deposit",
      "outputs": [],
      "stateMutability": "payable",
      "type": "function"
    },
    {
      "inputs": [],
      "name": "epochDuration",
      "outputs": [
        {
          "internalType": "uint256",
          "name": "",
          "type": "uint256"
        }
      ],
      "stateMutability": "view",
      "type": "function"
    },
    {
      "inputs": [
        {
          "internalType": "uint256",
          "name": "",
          "type": "uint256"
        },
        {
          "internalType": "uint256",
          "name": "",
          "type": "uint256"
        }
      ],
      "name": "epochWinners",
      "outputs": [
        {
          "internalType": "address",
          "name": "",
          "type": "address"
        }
      ],
      "stateMutability": "view",
      "type": "function"
    },
    {
      "inputs": [
        {
          "internalType": "uint256",
          "name": "",
          "type": "uint256"
        }
      ],
      "name": "epochs",
      "outputs": [
        {
          "internalType": "uint64",
          "name": "startTime",
          "type": "uint64"
        },
        {
          "internalType": "uint64",
          "name": "endTime",
          "type": "uint64"
        },
        {
          "internalType": "bool",
          "name": "closed",
          "type": "bool"
        },
        {
          "internalType": "bool",
          "name": "finalized",
          "type": "bool"
        },
        {
          "internalType": "uint256",
          "name": "totalStaked",
          "type": "uint256"
        },
        {
          "internalType": "uint256",
          "name": "yieldAmount",
          "type": "uint256"
        },
        {
          "internalType": "uint256",
          "name": "feeAmount",
          "type": "uint256"
        },
        {
          "internalType": "uint256",
          "name": "netReward",
          "type": "uint256"
        },
        {
          "internalType": "uint256",
          "name": "prizePool",
          "type": "uint256"
        },
        {
          "internalType": "uint256",
          "name": "interestBaseline",
          "type": "uint256"
        }
      ],
      "stateMutability": "view",
      "type": "function"
    },
    {
      "inputs": [],
      "name": "feeBps",
      "outputs": [
        {
          "internalType": "uint256",
          "name": "",
          "type": "uint256"
        }
      ],
      "stateMutability": "view",
      "type": "function"
    },
    {
      "inputs": [],
      "name": "feeEscrowTotal",
      "outputs": [
        {
          "internalType": "uint256",
          "name": "",
          "type": "uint256"
        }
      ],
      "stateMutability": "view",
      "type": "function"
    },
    {
      "inputs": [
        {
          "internalType": "uint256",
          "name": "epochId",
          "type": "uint256"
        }
      ],
      "name": "getEpoch",
      "outputs": [
        {
          "components": [
            {
              "internalType": "uint64",
              "name": "startTime",
              "type": "uint64"
            },
            {
              "internalType": "uint64",
              "name": "endTime",
              "type": "uint64"
            },
            {
              "internalType": "bool",
              "name": "closed",
              "type": "bool"
            },
            {
              "internalType": "bool",
              "name": "finalized",
              "type": "bool"
            },
            {
              "internalType": "uint256",
              "name": "totalStaked",
              "type": "uint256"
            },
            {
              "internalType": "uint256",
              "name": "yieldAmount",
              "type": "uint256"
            },
            {
              "internalType": "uint256",
              "name": "feeAmount",
              "type": "uint256"
            },
            {
              "internalType": "uint256",
              "name": "netReward",
              "type": "uint256"
            },
            {
              "internalType": "uint256",
              "name": "prizePool",
              "type": "uint256"
            },
            {
              "internalType": "uint256",
              "name": "interestBaseline",
              "type": "uint256"
            }
          ],
          "internalType": "struct EpochPrizePool.Epoch",
          "name": "",
          "type": "tuple"
        }
      ],
      "stateMutability": "view",
      "type": "function"
    },
    {
      "inputs": [
        {
          "internalType": "uint256",
          "name": "epochId",
          "type": "uint256"
        }
      ],
      "name": "getParticipants",
      "outputs": [
        {
          "internalType": "address[]",
          "name": "addrs",
          "type": "address[]"
        }
      ],
      "stateMutability": "view",
      "type": "function"
    },
    {
      "inputs": [],
      "name": "numWinners",
      "outputs": [
        {
          "internalType": "uint256",
          "name": "",
          "type": "uint256"
        }
      ],
      "stateMutability": "view",
      "type": "function"
    },
    {
      "inputs": [],
      "name": "owner",
      "outputs": [
        {
          "internalType": "address",
          "name": "",
          "type": "address"
        }
      ],
      "stateMutability": "view",
      "type": "function"
    },
    {
      "inputs": [],
      "name": "pause",
      "outputs": [],
      "stateMutability": "nonpayable",
      "type": "function"
    },
    {
      "inputs": [],
      "name": "paused",
      "outputs": [
        {
          "internalType": "bool",
          "name": "",
          "type": "bool"
        }
      ],
      "stateMutability": "view",
      "type": "function"
    },
    {
      "inputs": [],
      "name": "poke",
      "outputs": [],
      "stateMutability": "nonpayable",
      "type": "function"
    },
    {
      "inputs": [],
      "name": "renounceOwnership",
      "outputs": [],
      "stateMutability": "nonpayable",
      "type": "function"
    },
    {
      "inputs": [
        {
          "internalType": "contract AaveIntegration",
          "name": "_aave",
          "type": "address"
        }
      ],
      "name": "setAaveIntegration",
      "outputs": [],
      "stateMutability": "nonpayable",
      "type": "function"
    },
    {
      "inputs": [
        {
          "internalType": "address",
          "name": "signer",
          "type": "address"
        }
      ],
      "name": "setWinnerSigner",
      "outputs": [],
      "stateMutability": "nonpayable",
      "type": "function"
    },
    {
      "inputs": [
        {
          "internalType": "uint256",
          "name": "",
          "type": "uint256"
        },
        {
          "internalType": "address",
          "name": "",
          "type": "address"
        }
      ],
      "name": "stakeOf",
      "outputs": [
        {
          "internalType": "uint256",
          "name": "",
          "type": "uint256"
        }
      ],
      "stateMutability": "view",
      "type": "function"
    },
    {
      "inputs": [
        {
          "internalType": "uint256",
          "name": "epochId",
          "type": "uint256"
        },
        {
          "internalType": "address[]",
          "name": "winners",
          "type": "address[]"
        },
        {
          "internalType": "bytes",
          "name": "signature",
          "type": "bytes"
        }
      ],
      "name": "submitWinners",
      "outputs": [],
      "stateMutability": "nonpayable",
      "type": "function"
    },
    {
      "inputs": [
        {
          "internalType": "address",
          "name": "newOwner",
          "type": "address"
        }
      ],
      "name": "transferOwnership",
      "outputs": [],
      "stateMutability": "nonpayable",
      "type": "function"
    },
    {
      "inputs": [],
      "name": "unpause",
      "outputs": [],
      "stateMutability": "nonpayable",
      "type": "function"
    },
    {
      "inputs": [],
      "name": "winnerSigner",
      "outputs": [
        {
          "internalType": "address",
          "name": "",
          "type": "address"
        }
      ],
      "stateMutability": "view",
      "type": "function"
    },
    {
      "inputs": [
        {
          "internalType": "uint256",
          "name": "",
          "type": "uint256"
        }
      ],
      "name": "winnersSet",
      "outputs": [
        {
          "internalType": "bool",
          "name": "",
          "type": "bool"
        }
      ],
      "stateMutability": "view",
      "type": "function"
    },
    {
      "inputs": [
        {
          "internalType": "uint256",
          "name": "amount",
          "type": "uint256"
        },
        {
          "internalType": "address payable",
          "name": "to",
          "type": "address"
        }
      ],
      "name": "withdrawFees",
      "outputs": [],
      "stateMutability": "nonpayable",
      "type": "function"
    },
    {
      "stateMutability": "payable",
      "type": "receive"
    }
  ],
  "bytecode": "0x60806040523480156200001157600080fd5b5060405162002bb338038062002bb3833981016040819052620000349162000520565b600160005533806200006157604051631e4fbdf760e01b8152600060048201526024015b60405180910390fd5b6200006c816200009b565b506200007885620000ed565b620000868484848462000169565b6200009062000224565b5050505050620005b9565b600180546001600160a01b038381166001600160a01b0319831681179093556040519116919082907f8be0079c531659141344cd1fd0a4f28419497f9722a3daafe3b4186f6b6457e090600090a35050565b620000f7620004ef565b6001600160a01b0381166200011f57604051633494a40d60e21b815260040160405180910390fd5b600280546001600160a01b0319166001600160a01b0383169081179091556040517ff69ab3012a7df36e0121a067d98967ff59ee4185fc6e696c13fb072aa8a7a37890600090a250565b62000173620004ef565b83158062000182575061271083115b806200018c575081155b8062000199575061271081115b80620001a3575080155b15620001c257604051633494a40d60e21b815260040160405180910390fd5b60038490556004839055600682905560078190556040805185815260208101859052908101839052606081018290527f84d25455db084cf777a0a4a00fcc28946b3a2ebc5cc866ef8820ab8571dbdd369060800160405180910390a150505050565b600260009054906101000a90046001600160a01b03166001600160a01b031663d14827916040518163ffffffff1660e01b8152600401600060405180830381600087803b1580156200027557600080fd5b505af11580156200028a573d6000803e3d6000fd5b505050506000600260009054906101000a90046001600160a01b03166001600160a01b031663564afa3a6040518163ffffffff1660e01b8152600401602060405180830381865afa158015620002e4573d6000803e3d6000fd5b505050506040513d601f19601f820116820180604052508101906200030a919062000577565b905060016009600082825462000321919062000591565b9091555050600354429060009062000343906001600160401b03841662000591565b9050604051806101400160405280836001600160401b03168152602001826001600160401b03168152602001600015158152602001600015158152602001600081526020016000815260200160008152602001600081526020016000815260200184815250600a6000600954815260200190815260200160002060008201518160000160006101000a8154816001600160401b0302191690836001600160401b0316021790555060208201518160000160086101000a8154816001600160401b0302191690836001600160401b0316021790555060408201518160000160106101000a81548160ff02191690831515021790555060608201518160000160116101000a81548160ff0219169083151502179055506080820151816001015560a0820151816002015560c0820151816003015560e08201518160040155610100820151816005015561012082015181600601559050506009547f78eb823d8d0201e46c77a35e1e4dc51a5a3d1bcd2425ca79d0d213592ed4b2c78383604051620004e29291906001600160401b0392831681529116602082015260400190565b60405180910390a2505050565b6001546001600160a01b031633146200051e5760405163118cdaa760e01b815233600482015260240162000058565b565b600080600080600060a086880312156200053957600080fd5b85516001600160a01b03811681146200055157600080fd5b602087015160408801516060890151608090990151929a91995097965090945092505050565b6000602082840312156200058a57600080fd5b5051919050565b80820180821115620005b357634e487b7160e01b600052601160045260246000fd5b92915050565b6125ea80620005c96000396000f3fe6080604052600436106101c65760003560e01c80637c7040d8116100f7578063c1e3bd3e11610095578063eacdc5ff11610064578063eacdc5ff146105b6578063ed1e7f6c146105cc578063f2fde38b146105ec578063ff877e141461060c57600080fd5b8063c1e3bd3e14610483578063c6b61e4c146104b0578063d0e30db01461058e578063dd2cc3f31461059657600080fd5b80638b7bcc86116100d15780638b7bcc861461040c5780638da5cb5b146104225780639370801114610440578063bc0bc6ba1461045657600080fd5b80637c7040d8146103b7578063819faf7b146103d75780638456cb59146103f757600080fd5b8063379607f5116101645780634ff0876a1161013e5780634ff0876a1461034d5780635c975abb1461036357806360cf55ba14610382578063715018a6146103a257600080fd5b8063379607f5146102d857806338aed785146102f85780633f4ba83a1461033857600080fd5b806318178358116101a0578063181783581461025157806323e0cf7a1461026657806324a9d8531461028a57806331c85986146102a057600080fd5b8063022fc225146101d257806304a7a780146101f4578063083d0fda1461021457600080fd5b366101cd57005b600080fd5b3480156101de57600080fd5b506101f26101ed366004612118565b610644565b005b34801561020057600080fd5b506101f261020f36600461215f565b6106f8565b34801561022057600080fd5b5061023461022f36600461217c565b610771565b6040516001600160a01b0390911681526020015b60405180910390f35b34801561025d57600080fd5b506101f26107a9565b34801561027257600080fd5b5061027c60075481565b604051908152602001610248565b34801561029657600080fd5b5061027c60045481565b3480156102ac57600080fd5b5061027c6102bb36600461219e565b600b60209081526000928352604080842090915290825290205481565b3480156102e457600080fd5b506101f26102f33660046121ce565b6107b3565b34801561030457600080fd5b506103286103133660046121ce565b600e6020526000908152604090205460ff1681565b6040519015158152602001610248565b34801561034457600080fd5b506101f261095e565b34801561035957600080fd5b5061027c60035481565b34801561036f57600080fd5b50600154600160a01b900460ff16610328565b34801561038e57600080fd5b50600854610234906001600160a01b031681565b3480156103ae57600080fd5b506101f261096e565b3480156103c357600080fd5b506101f26103d236600461215f565b610980565b3480156103e357600080fd5b50600254610234906001600160a01b031681565b34801561040357600080fd5b506101f26109f9565b34801561041857600080fd5b5061027c60065481565b34801561042e57600080fd5b506001546001600160a01b0316610234565b34801561044c57600080fd5b5061027c60055481565b34801561046257600080fd5b506104766104713660046121ce565b610a09565b60405161024891906121e7565b34801561048f57600080fd5b506104a361049e3660046121ce565b610b17565b6040516102489190612282565b3480156104bc57600080fd5b506105336104cb3660046121ce565b600a6020526000908152604090208054600182015460028301546003840154600485015460058601546006909601546001600160401b0380871697600160401b88049091169660ff600160801b8204811697600160881b90920416959094909390929091908a565b604080516001600160401b039b8c1681529a90991660208b0152961515978901979097529315156060880152608087019290925260a086015260c085015260e084015261010083019190915261012082015261014001610248565b6101f2610bd0565b3480156105a257600080fd5b506101f26105b136600461219e565b610d77565b3480156105c257600080fd5b5061027c60095481565b3480156105d857600080fd5b506101f26105e7366004612317565b610ec5565b3480156105f857600080fd5b506101f261060736600461215f565b611224565b34801561061857600080fd5b5061027c61062736600461219e565b600f60209081526000928352604080842090915290825290205481565b61064c61125f565b83158061065a575061271083115b80610663575081155b8061066f575061271081115b80610678575080155b1561069657604051633494a40d60e21b815260040160405180910390fd5b60038490556004839055600682905560078190556040805185815260208101859052908101839052606081018290527f84d25455db084cf777a0a4a00fcc28946b3a2ebc5cc866ef8820ab8571dbdd369060800160405180910390a150505050565b61070061125f565b6001600160a01b03811661072757604051633494a40d60e21b815260040160405180910390fd5b600280546001600160a01b0319166001600160a01b0383169081179091556040517ff69ab3012a7df36e0121a067d98967ff59ee4185fc6e696c13fb072aa8a7a37890600090a250565b600d602052816000526040600020818154811061078d57600080fd5b6000918252602090912001546001600160a01b03169150829050565b6107b161128c565b565b6107bb611302565b6107c361132c565b6107cb61128c565b6000818152600a6020526040902054600160881b900460ff1661080157604051638cf7570760e01b815260040160405180910390fd5b6000818152600f602090815260408083203384529091528120549081900361083c576040516312d37ee560e31b815260040160405180910390fd5b6000828152600f602090815260408083203380855292528083208390555183908381818185875af1925050503d8060008114610894576040519150601f19603f3d011682016040523d82523d6000602084013e610899565b606091505b50509050806108e15760405162461bcd60e51b815260206004820152600f60248201526e1d1c985b9cd9995c8819985a5b1959608a1b60448201526064015b60405180910390fd5b604051828152839033907f88f3705f0c4d3c5b1a1d29fe4fd3f87e889a5a0ce0a1e37989766b3248603fe99060200160405180910390a3604051828152839033907f987d620f307ff6b94d58743cb7a7509f24071586a77759b77c2d4e29f75a2f9a9060200160405180910390a3505061095b6001600055565b50565b61096661125f565b6107b1611357565b61097661125f565b6107b160006113ac565b61098861125f565b6001600160a01b0381166109af57604051633494a40d60e21b815260040160405180910390fd5b600880546001600160a01b0319166001600160a01b0383169081179091556040517fe3f328a29589f0ecd75df30860b29d6368096eb1494cb6e5cf56dbebe84ad5b490600090a250565b610a0161125f565b6107b16113fe565b610a7560405180610140016040528060006001600160401b0316815260200160006001600160401b031681526020016000151581526020016000151581526020016000815260200160008152602001600081526020016000815260200160008152602001600081525090565b506000908152600a602090815260409182902082516101408101845281546001600160401b038082168352600160401b8204169382019390935260ff600160801b84048116151594820194909452600160881b9092049092161515606082015260018201546080820152600282015460a0820152600382015460c0820152600482015460e0820152600582015461010082015260069091015461012082015290565b6000818152600c60205260408120606091610b3182611441565b9050806001600160401b03811115610b4b57610b4b6123c1565b604051908082528060200260200182016040528015610b74578160200160208202803683370190505b50925060005b81811015610bc857610b8c8382611451565b848281518110610b9e57610b9e6123d7565b6001600160a01b039092166020928302919091019091015280610bc081612403565b915050610b7a565b505050919050565b610bd8611302565b610be061132c565b610be861128c565b6009546000908152600a602052604090208054600160401b90046001600160401b031642101580610c2157508054600160801b900460ff165b15610c3f57604051634c39b1d560e01b815260040160405180910390fd5b34600003610c6057604051633494a40d60e21b815260040160405180910390fd5b6009546000908152600c60205260409020610c7b9033611464565b506009546000908152600b6020908152604080832033845290915281208054349290610ca890849061241c565b9250508190555034816001016000828254610cc3919061241c565b909155505060025460405162d1fa5b60e71b815234600482018190526001600160a01b03909216916368fd2d80916024016000604051808303818588803b158015610d0d57600080fd5b505af1158015610d21573d6000803e3d6000fd5b5050505050600954336001600160a01b03167f73a19dd210f1a7f902193214c0ee91dd35ee5b4d920cba8d519eca65a7b488ca34604051610d6491815260200190565b60405180910390a3506107b16001600055565b610d7f61125f565b610d87611302565b811580610d95575060055482115b80610da757506001600160a01b038116155b15610dc557604051633494a40d60e21b815260040160405180910390fd5b8160056000828254610dd7919061242f565b90915550506040516000906001600160a01b0383169084908381818185875af1925050503d8060008114610e27576040519150601f19603f3d011682016040523d82523d6000602084013e610e2c565b606091505b5050905080610e735760405162461bcd60e51b8152602060048201526013602482015272199959481dda5d1a191c985dc819985a5b1959606a1b60448201526064016108d8565b816001600160a01b03167f78473f3f373f7673597f4f0fa5873cb4d375fea6d4339ad6b56dbd411513cb3f84604051610eae91815260200190565b60405180910390a250610ec16001600055565b5050565b610ecd61132c565b6000858152600a60205260408120805490916001600160401b039091169003610f245760405162461bcd60e51b81526020600482015260096024820152680c4c2c840cae0dec6d60bb1b60448201526064016108d8565b6000868152600e602052604090205460ff1615610f715760405162461bcd60e51b815260206004820152600b60248201526a185b1c9958591e481cd95d60aa1b60448201526064016108d8565b83610fab5760405162461bcd60e51b815260206004820152600a6024820152696e6f2077696e6e65727360b01b60448201526064016108d8565b600030878787604051602001610fc4949392919061248b565b60405160208183030381529060405280519060200120905060008160405160200161101b91907f19457468657265756d205369676e6564204d6573736167653a0a3332000000008152601c810191909152603c0190565b60405160208183030381529060405280519060200120905060006110758287878080601f01602080910402602001604051908101604052809392919081815260200183838082843760009201919091525061147992505050565b6008549091506001600160a01b038083169116146110bf5760405162461bcd60e51b81526020600482015260076024820152666261642073696760c81b60448201526064016108d8565b60065487908111156110d057506006545b60008a8152600d60205260408120905b828110156111c15760008b8b838181106110fc576110fc6123d7565b9050602002016020810190611111919061215f565b6001600160a01b0316036111555760405162461bcd60e51b815260206004820152600b60248201526a3d32b937903bb4b73732b960a91b60448201526064016108d8565b818b8b83818110611168576111686123d7565b905060200201602081019061117d919061215f565b81546001810183556000928352602090922090910180546001600160a01b0319166001600160a01b03909216919091179055806111b981612403565b9150506110e0565b5060008b8152600e602052604090819020805460ff19166001179055518b907f740069a90e5e7b50ccccc85b87048879ff11a9b900d07d4674a419121c3c77c89061120f908d908d906124bd565b60405180910390a25050505050505050505050565b61122c61125f565b6001600160a01b03811661125657604051631e4fbdf760e01b8152600060048201526024016108d8565b61095b816113ac565b6001546001600160a01b031633146107b15760405163118cdaa760e01b81523360048201526024016108d8565b6009546000908152600a602052604090208054600160801b900460ff161580156112c757508054600160401b90046001600160401b03164210155b156112d4576112d46114a3565b8054600160801b900460ff1680156112f557508054600160881b900460ff16155b1561095b5761095b6116b2565b60026000540361132557604051633ee5aeb560e01b815260040160405180910390fd5b6002600055565b600154600160a01b900460ff16156107b15760405163d93c066560e01b815260040160405180910390fd5b61135f611916565b6001805460ff60a01b191690557f5db9ee0a495bf2e6ff9c91a7834c1ba4fdd244a5e8aa4e537bd38aeae4b073aa335b6040516001600160a01b03909116815260200160405180910390a1565b600180546001600160a01b038381166001600160a01b0319831681179093556040519116919082907f8be0079c531659141344cd1fd0a4f28419497f9722a3daafe3b4186f6b6457e090600090a35050565b61140661132c565b6001805460ff60a01b1916600160a01b1790557f62e78cea01bee320cd4e420270b5ea74000d11b0c9f74754ebdbfc544b05a25861138f3390565b600061144b825490565b92915050565b600061145d8383611940565b9392505050565b600061145d836001600160a01b03841661196a565b60008060008061148986866119b9565b9250925092506114998282611a06565b5090949350505050565b6009546000908152600a602052604090208054600160801b900460ff16156114c85750565b600260009054906101000a90046001600160a01b03166001600160a01b031663d14827916040518163ffffffff1660e01b8152600401600060405180830381600087803b15801561151857600080fd5b505af115801561152c573d6000803e3d6000fd5b505050506000600260009054906101000a90046001600160a01b03166001600160a01b031663f9ec99ac6040518163ffffffff1660e01b8152600401608060405180830381865afa158015611585573d6000803e3d6000fd5b505050506040513d601f19601f820116820180604052508101906115a991906124d9565b600183015460408201516006850154929350909160009082116115cd5760006115dc565b60068501546115dc908361242f565b90506000612710600454836115f1919061254c565b6115fb9190612563565b9050600081831161160d576000611617565b611617828461242f565b90506000611625828761241c565b60028901859055600389018490556004890183905560058901819055885460ff60801b1916600160801b17895560095460408051898152602081018890529081018690526060810185905260808101839052919250907f9f4e50cef09f804f4e6d48c3d67dadb5de00228b35a17dc6d835df403659bfaf9060a00160405180910390a25050505050505050565b6116ba611302565b6009546000908152600a60209081526040808320600e9092529091205460ff166117185760405162461bcd60e51b815260206004820152600f60248201526e1dda5b9b995c9cc81b9bdd081cd95d608a1b60448201526064016108d8565b8054600160801b900460ff16158061173857508054600160881b900460ff165b15611743575061190c565b600260009054906101000a90046001600160a01b03166001600160a01b031663d14827916040518163ffffffff1660e01b8152600401600060405180830381600087803b15801561179357600080fd5b505af11580156117a7573d6000803e3d6000fd5b505050506000600260009054906101000a90046001600160a01b03166001600160a01b031663b68ef5596040518163ffffffff1660e01b8152600401602060405180830381865afa158015611800573d6000803e3d6000fd5b505050506040513d601f19601f820116820180604052508101906118249190612585565b90508015611891576002546040516328ae265160e21b8152600481018390523060248201526001600160a01b039091169063a2b8994490604401600060405180830381600087803b15801561187857600080fd5b505af115801561188c573d6000803e3d6000fd5b505050505b6003820154156118b7578160030154600560008282546118b1919061241c565b90915550505b6118c48260050154611abf565b815460ff60881b1916600160881b1782556009546040517f8fc0db93d562284b2140b5ba84181e6d8649504e729013e6a8c704ffb08d04b990600090a2611909611d88565b50505b6107b16001600055565b600154600160a01b900460ff166107b157604051638dfc202b60e01b815260040160405180910390fd5b6000826000018281548110611957576119576123d7565b9060005260206000200154905092915050565b60008181526001830160205260408120546119b15750815460018181018455600084815260208082209093018490558454848252828601909352604090209190915561144b565b50600061144b565b600080600083516041036119f35760208401516040850151606086015160001a6119e588828585612049565b9550955095505050506119ff565b50508151600091506002905b9250925092565b6000826003811115611a1a57611a1a61259e565b03611a23575050565b6001826003811115611a3757611a3761259e565b03611a555760405163f645eedf60e01b815260040160405180910390fd5b6002826003811115611a6957611a6961259e565b03611a8a5760405163fce698f760e01b8152600481018290526024016108d8565b6003826003811115611a9e57611a9e61259e565b03610ec1576040516335e2f38360e21b8152600481018290526024016108d8565b6009546000818152600d602052604090208054801580611add575083155b15611ae85750505050565b6000816001600160401b03811115611b0257611b026123c1565b604051908082528060200260200182016040528015611b2b578160200160208202803683370190505b509050670de0b6b3a764000060005b83811015611b905781838281518110611b5557611b556123d7565b60200260200101818152505061271060075483611b72919061254c565b611b7c9190612563565b915080611b8881612403565b915050611b3a565b50600080846001600160401b03811115611bac57611bac6123c1565b604051908082528060200260200182016040528015611bd5578160200160208202803683370190505b50905060005b85811015611c92576000878281548110611bf757611bf76123d7565b60009182526020808320909101548b8352600b825260408084206001600160a01b03909216808552919092529120548451919250908190859085908110611c4057611c406123d7565b60200260200101818152505080878481518110611c5f57611c5f6123d7565b6020026020010151611c71919061254c565b611c7b908661241c565b945050508080611c8a90612403565b915050611bdb565b5081600003611ca5575050505050505050565b60005b85811015611d7d57600083838381518110611cc557611cc56123d7565b6020026020010151878481518110611cdf57611cdf6123d7565b6020026020010151611cf1919061254c565b611cfb908c61254c565b611d059190612563565b905080600f60008b815260200190815260200160002060008a8581548110611d2f57611d2f6123d7565b60009182526020808320909101546001600160a01b0316835282019290925260400181208054909190611d6390849061241c565b90915550829150611d75905081612403565b915050611ca8565b505050505050505050565b600260009054906101000a90046001600160a01b03166001600160a01b031663d14827916040518163ffffffff1660e01b8152600401600060405180830381600087803b158015611dd857600080fd5b505af1158015611dec573d6000803e3d6000fd5b505050506000600260009054906101000a90046001600160a01b03166001600160a01b031663564afa3a6040518163ffffffff1660e01b8152600401602060405180830381865afa158015611e45573d6000803e3d6000fd5b505050506040513d601f19601f82011682018060405250810190611e699190612585565b9050600160096000828254611e7e919061241c565b90915550506003544290600090611e9e906001600160401b03841661241c565b9050604051806101400160405280836001600160401b03168152602001826001600160401b03168152602001600015158152602001600015158152602001600081526020016000815260200160008152602001600081526020016000815260200184815250600a6000600954815260200190815260200160002060008201518160000160006101000a8154816001600160401b0302191690836001600160401b0316021790555060208201518160000160086101000a8154816001600160401b0302191690836001600160401b0316021790555060408201518160000160106101000a81548160ff02191690831515021790555060608201518160000160116101000a81548160ff0219169083151502179055506080820151816001015560a0820151816002015560c0820151816003015560e08201518160040155610100820151816005015561012082015181600601559050506009547f78eb823d8d0201e46c77a35e1e4dc51a5a3d1bcd2425ca79d0d213592ed4b2c7838360405161203c9291906001600160401b0392831681529116602082015260400190565b60405180910390a2505050565b600080807f7fffffffffffffffffffffffffffffff5d576e7357a4501ddfe92f46681b20a0841115612084575060009150600390508261210e565b604080516000808252602082018084528a905260ff891692820192909252606081018790526080810186905260019060a0016020604051602081039080840390855afa1580156120d8573d6000803e3d6000fd5b5050604051601f1901519150506001600160a01b0381166121045750600092506001915082905061210e565b9250600091508190505b9450945094915050565b6000806000806080858703121561212e57600080fd5b5050823594602084013594506040840135936060013592509050565b6001600160a01b038116811461095b57600080fd5b60006020828403121561217157600080fd5b813561145d8161214a565b6000806040838503121561218f57600080fd5b50508035926020909101359150565b600080604083850312156121b157600080fd5b8235915060208301356121c38161214a565b809150509250929050565b6000602082840312156121e057600080fd5b5035919050565b81516001600160401b031681526101408101602083015161221360208401826001600160401b03169052565b506040830151612227604084018215159052565b50606083015161223b606084018215159052565b506080830151608083015260a083015160a083015260c083015160c083015260e083015160e083015261010080840151818401525061012080840151818401525092915050565b6020808252825182820181905260009190848201906040850190845b818110156122c35783516001600160a01b03168352928401929184019160010161229e565b50909695505050505050565b60008083601f8401126122e157600080fd5b5081356001600160401b038111156122f857600080fd5b60208301915083602082850101111561231057600080fd5b9250929050565b60008060008060006060868803121561232f57600080fd5b8535945060208601356001600160401b038082111561234d57600080fd5b818801915088601f83011261236157600080fd5b81358181111561237057600080fd5b8960208260051b850101111561238557600080fd5b6020830196508095505060408801359150808211156123a357600080fd5b506123b0888289016122cf565b969995985093965092949392505050565b634e487b7160e01b600052604160045260246000fd5b634e487b7160e01b600052603260045260246000fd5b634e487b7160e01b600052601160045260246000fd5b600060018201612415576124156123ed565b5060010190565b8082018082111561144b5761144b6123ed565b8181038181111561144b5761144b6123ed565b8183526000602080850194508260005b858110156124805781356124658161214a565b6001600160a01b031687529582019590820190600101612452565b509495945050505050565b60018060a01b03851681528360208201526060604082015260006124b3606083018486612442565b9695505050505050565b6020815260006124d1602083018486612442565b949350505050565b6000608082840312156124eb57600080fd5b604051608081018181106001600160401b038211171561251b57634e487b7160e01b600052604160045260246000fd5b8060405250825181526020830151602082015260408301516040820152606083015160608201528091505092915050565b808202811582820484141761144b5761144b6123ed565b60008261258057634e487b7160e01b600052601260045260246000fd5b500490565b60006020828403121561259757600080fd5b5051919050565b634e487b7160e01b600052602160045260246000fdfea26469706673582212201900dfca0babaa3f4ee6274bbddfbcb2fcaef93191f5112093856fa1767b507864736f6c63430008140033",
  "linkReferences": {},
  "deployedLinkReferences": {}
}