{
  "_format": "hh-sol-artifact-1",
  "contractName": "StakingContract",
  "sourceName": "contracts/StakingContract.sol",
  "abi": [
    {
      "inputs": [
        {
          "internalType": "uint256",
          "name": "_minimumStakeAmount",
          "type": "uint256"
        },
        {
          "internalType": "uint256",
          "name": "_minimumLockPeriod",
          "type": "uint256"
        },
        {
          "internalType": "uint256",
          "name": "_maximumLockPeriod",
          "type": "uint256"
        }
      ],
      "stateMutability": "nonpayable",
      "type": "constructor"
    },
    {
      "inputs": [],
      "name": "AaveIntegrationNotSet",
      "type": "error"
    },
    {
      "inputs": [],
      "name": "AaveOperationFailed",
      "type": "error"
    },
    {
      "inputs": [],
      "name": "EnforcedPause",
      "type": "error"
    },
    {
      "inputs": [],
      "name": "ExpectedPause",
      "type": "error"
    },
    {
      "inputs": [],
      "name": "InsufficientBalance",
      "type": "error"
    },
    {
      "inputs": [],
      "name": "InsufficientStakeAmount",
      "type": "error"
    },
    {
      "inputs": [],
      "name": "InvalidLockPeriod",
      "type": "error"
    },
    {
      "inputs": [],
      "name": "LockPeriodNotExpired",
      "type": "error"
    },
    {
      "inputs": [
        {
          "internalType": "address",
          "name": "owner",
          "type": "address"
        }
      ],
      "name": "OwnableInvalidOwner",
      "type": "error"
    },
    {
      "inputs": [
        {
          "internalType": "address",
          "name": "account",
          "type": "address"
        }
      ],
      "name": "OwnableUnauthorizedAccount",
      "type": "error"
    },
    {
      "inputs": [],
      "name": "PositionNotActive",
      "type": "error"
    },
    {
      "inputs": [],
      "name": "PositionNotFound",
      "type": "error"
    },
    {
      "inputs": [],
      "name": "ReentrancyGuardReentrantCall",
      "type": "error"
    },
    {
      "inputs": [],
      "name": "UnauthorizedAccess",
      "type": "error"
    },
    {
      "anonymous": false,
      "inputs": [
        {
          "indexed": true,
          "internalType": "address",
          "name": "aaveIntegration",
          "type": "address"
        }
      ],
      "name": "AaveIntegrationSet",
      "type": "event"
    },
    {
      "anonymous": false,
      "inputs": [
        {
          "indexed": true,
          "internalType": "address",
          "name": "staker",
          "type": "address"
        },
        {
          "indexed": true,
          "internalType": "uint256",
          "name": "positionId",
          "type": "uint256"
        },
        {
          "indexed": false,
          "internalType": "uint256",
          "name": "amount",
          "type": "uint256"
        },
        {
          "indexed": false,
          "internalType": "uint256",
          "name": "penalty",
          "type": "uint256"
        }
      ],
      "name": "EmergencyWithdraw",
      "type": "event"
    },
    {
      "anonymous": false,
      "inputs": [
        {
          "indexed": true,
          "internalType": "address",
          "name": "previousOwner",
          "type": "address"
        },
        {
          "indexed": true,
          "internalType": "address",
          "name": "newOwner",
          "type": "address"
        }
      ],
      "name": "OwnershipTransferred",
      "type": "event"
    },
    {
      "anonymous": false,
      "inputs": [
        {
          "indexed": false,
          "internalType": "address",
          "name": "account",
          "type": "address"
        }
      ],
      "name": "Paused",
      "type": "event"
    },
    {
      "anonymous": false,
      "inputs": [
        {
          "indexed": true,
          "internalType": "address",
          "name": "rewardDistribution",
          "type": "address"
        }
      ],
      "name": "RewardDistributionSet",
      "type": "event"
    },
    {
      "anonymous": false,
      "inputs": [
        {
          "indexed": true,
          "internalType": "address",
          "name": "staker",
          "type": "address"
        },
        {
          "indexed": true,
          "internalType": "uint256",
          "name": "positionId",
          "type": "uint256"
        },
        {
          "indexed": false,
          "internalType": "uint256",
          "name": "amount",
          "type": "uint256"
        },
        {
          "indexed": false,
          "internalType": "uint256",
          "name": "lockPeriod",
          "type": "uint256"
        },
        {
          "indexed": false,
          "internalType": "uint256",
          "name": "timestamp",
          "type": "uint256"
        }
      ],
      "name": "Staked",
      "type": "event"
    },
    {
      "anonymous": false,
      "inputs": [
        {
          "indexed": false,
          "internalType": "uint256",
          "name": "amount",
          "type": "uint256"
        }
      ],
      "name": "TokensDepositedToAave",
      "type": "event"
    },
    {
      "anonymous": false,
      "inputs": [
        {
          "indexed": false,
          "internalType": "uint256",
          "name": "amount",
          "type": "uint256"
        }
      ],
      "name": "TokensWithdrawnFromAave",
      "type": "event"
    },
    {
      "anonymous": false,
      "inputs": [
        {
          "indexed": false,
          "internalType": "address",
          "name": "account",
          "type": "address"
        }
      ],
      "name": "Unpaused",
      "type": "event"
    },
    {
      "anonymous": false,
      "inputs": [
        {
          "indexed": true,
          "internalType": "address",
          "name": "staker",
          "type": "address"
        },
        {
          "indexed": true,
          "internalType": "uint256",
          "name": "positionId",
          "type": "uint256"
        },
        {
          "indexed": false,
          "internalType": "uint256",
          "name": "amount",
          "type": "uint256"
        },
        {
          "indexed": false,
          "internalType": "uint256",
          "name": "timestamp",
          "type": "uint256"
        }
      ],
      "name": "Unstaked",
      "type": "event"
    },
    {
      "inputs": [],
      "name": "aaveIntegration",
      "outputs": [
        {
          "internalType": "contract AaveIntegration",
          "name": "",
          "type": "address"
        }
      ],
      "stateMutability": "view",
      "type": "function"
    },
    {
      "inputs": [
        {
          "internalType": "uint256",
          "name": "positionId",
          "type": "uint256"
        }
      ],
      "name": "canUnstake",
      "outputs": [
        {
          "internalType": "bool",
          "name": "",
          "type": "bool"
        }
      ],
      "stateMutability": "view",
      "type": "function"
    },
    {
      "inputs": [
        {
          "internalType": "uint256",
          "name": "positionId",
          "type": "uint256"
        }
      ],
      "name": "emergencyUnstake",
      "outputs": [],
      "stateMutability": "nonpayable",
      "type": "function"
    },
    {
      "inputs": [],
      "name": "getAaveRewards",
      "outputs": [
        {
          "internalType": "uint256",
          "name": "",
          "type": "uint256"
        }
      ],
      "stateMutability": "view",
      "type": "function"
    },
    {
      "inputs": [
        {
          "internalType": "address",
          "name": "user",
          "type": "address"
        }
      ],
      "name": "getActiveStakingPositions",
      "outputs": [
        {
          "components": [
            {
              "internalType": "uint256",
              "name": "id",
              "type": "uint256"
            },
            {
              "internalType": "address",
              "name": "staker",
              "type": "address"
            },
            {
              "internalType": "uint256",
              "name": "amount",
              "type": "uint256"
            },
            {
              "internalType": "uint256",
              "name": "startTime",
              "type": "uint256"
            },
            {
              "internalType": "uint256",
              "name": "lockPeriod",
              "type": "uint256"
            },
            {
              "internalType": "uint256",
              "name": "lastRewardClaim",
              "type": "uint256"
            },
            {
              "internalType": "bool",
              "name": "active",
              "type": "bool"
            }
          ],
          "internalType": "struct StakingContract.StakingPosition[]",
          "name": "",
          "type": "tuple[]"
        }
      ],
      "stateMutability": "view",
      "type": "function"
    },
    {
      "inputs": [],
      "name": "getContractBalance",
      "outputs": [
        {
          "internalType": "uint256",
          "name": "",
          "type": "uint256"
        }
      ],
      "stateMutability": "view",
      "type": "function"
    },
    {
      "inputs": [
        {
          "internalType": "uint256",
          "name": "positionId",
          "type": "uint256"
        }
      ],
      "name": "getRemainingLockTime",
      "outputs": [
        {
          "internalType": "uint256",
          "name": "",
          "type": "uint256"
        }
      ],
      "stateMutability": "view",
      "type": "function"
    },
    {
      "inputs": [
        {
          "internalType": "address",
          "name": "user",
          "type": "address"
        }
      ],
      "name": "getStakingPositions",
      "outputs": [
        {
          "components": [
            {
              "internalType": "uint256",
              "name": "id",
              "type": "uint256"
            },
            {
              "internalType": "address",
              "name": "staker",
              "type": "address"
            },
            {
              "internalType": "uint256",
              "name": "amount",
              "type": "uint256"
            },
            {
              "internalType": "uint256",
              "name": "startTime",
              "type": "uint256"
            },
            {
              "internalType": "uint256",
              "name": "lockPeriod",
              "type": "uint256"
            },
            {
              "internalType": "uint256",
              "name": "lastRewardClaim",
              "type": "uint256"
            },
            {
              "internalType": "bool",
              "name": "active",
              "type": "bool"
            }
          ],
          "internalType": "struct StakingContract.StakingPosition[]",
          "name": "",
          "type": "tuple[]"
        }
      ],
      "stateMutability": "view",
      "type": "function"
    },
    {
      "inputs": [],
      "name": "maximumLockPeriod",
      "outputs": [
        {
          "internalType": "uint256",
          "name": "",
          "type": "uint256"
        }
      ],
      "stateMutability": "view",
      "type": "function"
    },
    {
      "inputs": [],
      "name": "minimumLockPeriod",
      "outputs": [
        {
          "internalType": "uint256",
          "name": "",
          "type": "uint256"
        }
      ],
      "stateMutability": "view",
      "type": "function"
    },
    {
      "inputs": [],
      "name": "minimumStakeAmount",
      "outputs": [
        {
          "internalType": "uint256",
          "name": "",
          "type": "uint256"
        }
      ],
      "stateMutability": "view",
      "type": "function"
    },
    {
      "inputs": [],
      "name": "owner",
      "outputs": [
        {
          "internalType": "address",
          "name": "",
          "type": "address"
        }
      ],
      "stateMutability": "view",
      "type": "function"
    },
    {
      "inputs": [],
      "name": "pause",
      "outputs": [],
      "stateMutability": "nonpayable",
      "type": "function"
    },
    {
      "inputs": [],
      "name": "paused",
      "outputs": [
        {
          "internalType": "bool",
          "name": "",
          "type": "bool"
        }
      ],
      "stateMutability": "view",
      "type": "function"
    },
    {
      "inputs": [],
      "name": "renounceOwnership",
      "outputs": [],
      "stateMutability": "nonpayable",
      "type": "function"
    },
    {
      "inputs": [],
      "name": "rewardDistribution",
      "outputs": [
        {
          "internalType": "contract IRewardDistribution",
          "name": "",
          "type": "address"
        }
      ],
      "stateMutability": "view",
      "type": "function"
    },
    {
      "inputs": [
        {
          "internalType": "address",
          "name": "_aaveIntegration",
          "type": "address"
        }
      ],
      "name": "setAaveIntegration",
      "outputs": [],
      "stateMutability": "nonpayable",
      "type": "function"
    },
    {
      "inputs": [
        {
          "internalType": "address",
          "name": "_rewardDistribution",
          "type": "address"
        }
      ],
      "name": "setRewardDistribution",
      "outputs": [],
      "stateMutability": "nonpayable",
      "type": "function"
    },
    {
      "inputs": [
        {
          "internalType": "uint256",
          "name": "lockPeriod",
          "type": "uint256"
        }
      ],
      "name": "stake",
      "outputs": [],
      "stateMutability": "payable",
      "type": "function"
    },
    {
      "inputs": [
        {
          "internalType": "uint256",
          "name": "",
          "type": "uint256"
        }
      ],
      "name": "stakingPositions",
      "outputs": [
        {
          "internalType": "uint256",
          "name": "id",
          "type": "uint256"
        },
        {
          "internalType": "address",
          "name": "staker",
          "type": "address"
        },
        {
          "internalType": "uint256",
          "name": "amount",
          "type": "uint256"
        },
        {
          "internalType": "uint256",
          "name": "startTime",
          "type": "uint256"
        },
        {
          "internalType": "uint256",
          "name": "lockPeriod",
          "type": "uint256"
        },
        {
          "internalType": "uint256",
          "name": "lastRewardClaim",
          "type": "uint256"
        },
        {
          "internalType": "bool",
          "name": "active",
          "type": "bool"
        }
      ],
      "stateMutability": "view",
      "type": "function"
    },
    {
      "inputs": [
        {
          "internalType": "uint256",
          "name": "amount",
          "type": "uint256"
        }
      ],
      "name": "testAaveWithdrawal",
      "outputs": [],
      "stateMutability": "nonpayable",
      "type": "function"
    },
    {
      "inputs": [],
      "name": "totalStaked",
      "outputs": [
        {
          "internalType": "uint256",
          "name": "",
          "type": "uint256"
        }
      ],
      "stateMutability": "view",
      "type": "function"
    },
    {
      "inputs": [
        {
          "internalType": "address",
          "name": "newOwner",
          "type": "address"
        }
      ],
      "name": "transferOwnership",
      "outputs": [],
      "stateMutability": "nonpayable",
      "type": "function"
    },
    {
      "inputs": [],
      "name": "unpause",
      "outputs": [],
      "stateMutability": "nonpayable",
      "type": "function"
    },
    {
      "inputs": [
        {
          "internalType": "uint256",
          "name": "positionId",
          "type": "uint256"
        }
      ],
      "name": "unstake",
      "outputs": [],
      "stateMutability": "nonpayable",
      "type": "function"
    },
    {
      "inputs": [
        {
          "internalType": "uint256",
          "name": "_minimumStakeAmount",
          "type": "uint256"
        },
        {
          "internalType": "uint256",
          "name": "_minimumLockPeriod",
          "type": "uint256"
        },
        {
          "internalType": "uint256",
          "name": "_maximumLockPeriod",
          "type": "uint256"
        }
      ],
      "name": "updateStakingParameters",
      "outputs": [],
      "stateMutability": "nonpayable",
      "type": "function"
    },
    {
      "inputs": [
        {
          "internalType": "address",
          "name": "",
          "type": "address"
        },
        {
          "internalType": "uint256",
          "name": "",
          "type": "uint256"
        }
      ],
      "name": "userPositions",
      "outputs": [
        {
          "internalType": "uint256",
          "name": "",
          "type": "uint256"
        }
      ],
      "stateMutability": "view",
      "type": "function"
    },
    {
      "inputs": [
        {
          "internalType": "address",
          "name": "",
          "type": "address"
        }
      ],
      "name": "userTotalStaked",
      "outputs": [
        {
          "internalType": "uint256",
          "name": "",
          "type": "uint256"
        }
      ],
      "stateMutability": "view",
      "type": "function"
    },
    {
      "stateMutability": "payable",
      "type": "receive"
    }
  ],
  "bytecode": "0x608060405234801561001057600080fd5b50604051611a37380380611a3783398101604081905261002f916100cc565b6001600055338061005a57604051631e4fbdf760e01b81526000600482015260240160405180910390fd5b6100638161007a565b5060049290925560065560055560016002556100fa565b600180546001600160a01b038381166001600160a01b0319831681179093556040519116919082907f8be0079c531659141344cd1fd0a4f28419497f9722a3daafe3b4186f6b6457e090600090a35050565b6000806000606084860312156100e157600080fd5b8351925060208401519150604084015190509250925092565b61192e806101096000396000f3fe6080604052600436106101bb5760003560e01c80636f9fb98a116100ec5780638da5cb5b1161008a578063c61bd21411610064578063c61bd21414610537578063e876d4ea14610557578063f043a5871461056d578063f2fde38b1461058d57600080fd5b80638da5cb5b146104e6578063a694fc3a14610504578063b88b84fd1461051757600080fd5b8063817b1cd2116100c6578063817b1cd2146104855780638456cb591461049b578063892fee3c146104b05780638ccf3cd4146104d057600080fd5b80636f9fb98a14610430578063715018a614610443578063719de1ef1461045857600080fd5b8063303b85c9116101595780635c975abb116101335780635c975abb146103ba5780635d5d8d5b146103e55780635e1b4d99146103fa5780636b036f451461041a57600080fd5b8063303b85c9146102d457806331a73f9b146103015780633f4ba83a146103a557600080fd5b80630d68b761116101955780630d68b76114610246578063101114cf1461026657806321806bf9146102865780632e17de78146102b457600080fd5b8063012ce501146101c757806304a7a780146101e95780630d578f781461020957600080fd5b366101c257005b600080fd5b3480156101d357600080fd5b506101e76101e2366004611703565b6105ad565b005b3480156101f557600080fd5b506101e7610204366004611738565b610759565b34801561021557600080fd5b50600754610229906001600160a01b031681565b6040516001600160a01b0390911681526020015b60405180910390f35b34801561025257600080fd5b506101e7610261366004611738565b6107ab565b34801561027257600080fd5b50600854610229906001600160a01b031681565b34801561029257600080fd5b506102a66102a1366004611703565b6107fd565b60405190815260200161023d565b3480156102c057600080fd5b506101e76102cf366004611703565b6108b1565b3480156102e057600080fd5b506102f46102ef366004611738565b610be9565b60405161023d9190611753565b34801561030d57600080fd5b5061036661031c366004611703565b600a60205260009081526040902080546001820154600283015460038401546004850154600586015460069096015494956001600160a01b03909416949293919290919060ff1687565b604080519788526001600160a01b039096166020880152948601939093526060850191909152608084015260a0830152151560c082015260e00161023d565b3480156103b157600080fd5b506101e7610e30565b3480156103c657600080fd5b50600154600160a01b900460ff165b604051901515815260200161023d565b3480156103f157600080fd5b506102a6610e42565b34801561040657600080fd5b506102a66104153660046117e0565b610ed7565b34801561042657600080fd5b506102a660045481565b34801561043c57600080fd5b50476102a6565b34801561044f57600080fd5b506101e7610f08565b34801561046457600080fd5b506102a6610473366004611738565b600b6020526000908152604090205481565b34801561049157600080fd5b506102a660035481565b3480156104a757600080fd5b506101e7610f1a565b3480156104bc57600080fd5b506101e76104cb36600461180a565b610f2a565b3480156104dc57600080fd5b506102a660055481565b3480156104f257600080fd5b506001546001600160a01b0316610229565b6101e7610512366004611703565b610f40565b34801561052357600080fd5b506101e7610532366004611703565b61120a565b34801561054357600080fd5b506103d5610552366004611703565b6112c3565b34801561056357600080fd5b506102a660065481565b34801561057957600080fd5b506102f4610588366004611738565b611355565b34801561059957600080fd5b506101e76105a8366004611738565b6114e5565b6105b5611525565b6105bd61154f565b6000818152600a6020526040902060018101546001600160a01b031633146105f857604051631a27eac360e11b815260040160405180910390fd5b600681015460ff1661061d5760405163a8a168bf60e01b815260040160405180910390fd5b6002810154600061062f600a8361184c565b9050600061063d828461186e565b60068501805460ff19169055336000908152600b602052604081208054929350859290919061066d90849061186e565b925050819055508260036000828254610686919061186e565b9091555047905080821115610699578091505b811561070a57604051600090339084908381818185875af1925050503d80600081146106e1576040519150601f19603f3d011682016040523d82523d6000602084013e6106e6565b606091505b505090508061070857604051631e9acf1760e31b815260040160405180910390fd5b505b6040805183815260208101859052879133917f2369db1bafee945aee5630782f4a170682e3f8188d8dc247a4c73eb8c9e692d2910160405180910390a350505050506107566001600055565b50565b61076161157a565b600780546001600160a01b0319166001600160a01b0383169081179091556040517ff69ab3012a7df36e0121a067d98967ff59ee4185fc6e696c13fb072aa8a7a37890600090a250565b6107b361157a565b600880546001600160a01b0319166001600160a01b0383169081179091556040517f73e3204233454b4536c82daf1f89703c102e2f22a07ca6ae5b8899570971c6e990600090a250565b6000818152600a60209081526040808320815160e0810183528154815260018201546001600160a01b0316938101939093526002810154918301919091526003810154606083015260048101546080830152600581015460a08301526006015460ff16151560c082018190526108765750600092915050565b60008160800151826060015161088c9190611887565b905080421061089f575060009392505050565b6108a9428261186e565b949350505050565b6108b9611525565b6108c161154f565b6000818152600a6020526040902060018101546001600160a01b031633146108fc57604051631a27eac360e11b815260040160405180910390fd5b600681015460ff166109215760405163a8a168bf60e01b815260040160405180910390fd5b806004015481600301546109359190611887565b42101561095557604051633d65368d60e21b815260040160405180910390fd5b600281015460068201805460ff19169055336000908152600b60205260408120805483929061098590849061186e565b92505081905550806003600082825461099e919061186e565b9091555050600754819047906001600160a01b031615610a89576007546040516328ae265160e21b8152600481018590523060248201526001600160a01b039091169063a2b8994490604401600060405180830381600087803b158015610a0457600080fd5b505af1925050508015610a15575060015b610a305782471015610a275747610a29565b825b9150610a9c565b6040518381527ff60f4bc42d15f4267f4898b204bfa6873521493b2c1af61e030137373f3c4e069060200160405180910390a16000610a6f824761186e565b905060008111610a7f5783610a81565b805b925050610a9c565b82471015610a975747610a99565b825b91505b47821115610aa8574791505b6008546001600160a01b031615610b1157600854604051638212c17d60e01b81523360048201526001600160a01b0390911690638212c17d90602401600060405180830381600087803b158015610afe57600080fd5b505af1925050508015610b0f575060015b505b8115610b8657604051600090339084908381818185875af1925050503d8060008114610b59576040519150601f19603f3d011682016040523d82523d6000602084013e610b5e565b606091505b5050905080610b8057604051631e9acf1760e31b815260040160405180910390fd5b50610b9f565b604051631e9acf1760e31b815260040160405180910390fd5b60408051838152426020820152869133917f204fccf0d92ed8d48f204adb39b2e81e92bad0dedb93f5716ca9478cfb57de00910160405180910390a3505050506107566001600055565b6001600160a01b0381166000908152600960209081526040808320805482518185028101850190935280835260609493830182828015610c4857602002820191906000526020600020905b815481526020019060010190808311610c34575b505050505090506000805b8251811015610cb857600a6000848381518110610c7257610c7261189a565b60209081029190910181015182528101919091526040016000206006015460ff1615610ca65781610ca2816118b0565b9250505b80610cb0816118b0565b915050610c53565b5060008167ffffffffffffffff811115610cd457610cd46118c9565b604051908082528060200260200182016040528015610d0d57816020015b610cfa6116bb565b815260200190600190039081610cf25790505b5090506000805b8451811015610e2557600a6000868381518110610d3357610d3361189a565b60209081029190910181015182528101919091526040016000206006015460ff1615610e1357600a6000868381518110610d6f57610d6f61189a565b6020908102919091018101518252818101929092526040908101600020815160e0810183528154815260018201546001600160a01b0316938101939093526002810154918301919091526003810154606083015260048101546080830152600581015460a08301526006015460ff16151560c08201528351849084908110610df957610df961189a565b60200260200101819052508180610e0f906118b0565b9250505b80610e1d816118b0565b915050610d14565b509095945050505050565b610e3861157a565b610e406115a7565b565b6007546000906001600160a01b0316610e5b5750600090565b600760009054906101000a90046001600160a01b03166001600160a01b031663564afa3a6040518163ffffffff1660e01b8152600401602060405180830381865afa158015610eae573d6000803e3d6000fd5b505050506040513d601f19601f82011682018060405250810190610ed291906118df565b905090565b60096020528160005260406000208181548110610ef357600080fd5b90600052602060002001600091509150505481565b610f1061157a565b610e4060006115fc565b610f2261157a565b610e4061164e565b610f3261157a565b600492909255600655600555565b610f48611525565b610f5061154f565b600454341015610f735760405163a8ded35f60e01b815260040160405180910390fd5b600654811080610f84575060055481115b15610fa257604051632a82a34f60e01b815260040160405180910390fd5b6002805460009182610fb3836118b0565b909155506040805160e081018252828152336020808301828152348486018181524260608701818152608088018c815260a08901928352600160c08a0181815260008d8152600a8a528c81208c518155985189840180546001600160a01b0319166001600160a01b0390921691909117905595516002890155925160038801559051600487015591516005860155516006909401805460ff19169415159490941790935584815260098452868120805493840181558152838120909201879055928152600b90915292832080549495509193909290611093908490611887565b9250508190555034600360008282546110ac9190611887565b90915550506007546001600160a01b0316156111525760075460405162d1fa5b60e71b815234600482018190526001600160a01b03909216916368fd2d80916024016000604051808303818588803b15801561110757600080fd5b505af193505050508015611119575060015b15611152576040513481527fb799aff03f874943235e8aece9c78344531c14f7b25f8a44c032ed49051fdeaf9060200160405180910390a15b6008546001600160a01b0316156111bb57600854604051638c96377960e01b81523360048201526001600160a01b0390911690638c96377990602401600060405180830381600087803b1580156111a857600080fd5b505af19250505080156111b9575060015b505b604080513481526020810185905242818301529051839133917f9cfd25589d1eb8ad71e342a86a8524e83522e3936c0803048c08f6d9ad974f409181900360600190a350506107566001600055565b61121261157a565b6007546001600160a01b031615610756576007546040516328ae265160e21b8152600481018390523060248201526001600160a01b039091169063a2b8994490604401600060405180830381600087803b15801561126f57600080fd5b505af1158015611283573d6000803e3d6000fd5b505050507ff60f4bc42d15f4267f4898b204bfa6873521493b2c1af61e030137373f3c4e06816040516112b891815260200190565b60405180910390a150565b6000818152600a60209081526040808320815160e0810183528154815260018201546001600160a01b0316938101939093526002810154918301919091526003810154606083015260048101546080830152600581015460a08301526006015460ff1615801560c083018190529061134e57508060800151816060015161134a9190611887565b4210155b9392505050565b6001600160a01b03811660009081526009602090815260408083208054825181850281018501909352808352606094938301828280156113b457602002820191906000526020600020905b8154815260200190600101908083116113a0575b505050505090506000815167ffffffffffffffff8111156113d7576113d76118c9565b60405190808252806020026020018201604052801561141057816020015b6113fd6116bb565b8152602001906001900390816113f55790505b50905060005b82518110156114dd57600a60008483815181106114355761143561189a565b6020908102919091018101518252818101929092526040908101600020815160e0810183528154815260018201546001600160a01b0316938101939093526002810154918301919091526003810154606083015260048101546080830152600581015460a08301526006015460ff16151560c082015282518390839081106114bf576114bf61189a565b602002602001018190525080806114d5906118b0565b915050611416565b509392505050565b6114ed61157a565b6001600160a01b03811661151c57604051631e4fbdf760e01b8152600060048201526024015b60405180910390fd5b610756816115fc565b60026000540361154857604051633ee5aeb560e01b815260040160405180910390fd5b6002600055565b600154600160a01b900460ff1615610e405760405163d93c066560e01b815260040160405180910390fd5b6001546001600160a01b03163314610e405760405163118cdaa760e01b8152336004820152602401611513565b6115af611691565b6001805460ff60a01b191690557f5db9ee0a495bf2e6ff9c91a7834c1ba4fdd244a5e8aa4e537bd38aeae4b073aa335b6040516001600160a01b03909116815260200160405180910390a1565b600180546001600160a01b038381166001600160a01b0319831681179093556040519116919082907f8be0079c531659141344cd1fd0a4f28419497f9722a3daafe3b4186f6b6457e090600090a35050565b61165661154f565b6001805460ff60a01b1916600160a01b1790557f62e78cea01bee320cd4e420270b5ea74000d11b0c9f74754ebdbfc544b05a2586115df3390565b600154600160a01b900460ff16610e4057604051638dfc202b60e01b815260040160405180910390fd5b6040518060e001604052806000815260200160006001600160a01b03168152602001600081526020016000815260200160008152602001600081526020016000151581525090565b60006020828403121561171557600080fd5b5035919050565b80356001600160a01b038116811461173357600080fd5b919050565b60006020828403121561174a57600080fd5b61134e8261171c565b602080825282518282018190526000919060409081850190868401855b828110156117d357815180518552868101516001600160a01b0316878601528581015186860152606080820151908601526080808201519086015260a0808201519086015260c09081015115159085015260e09093019290850190600101611770565b5091979650505050505050565b600080604083850312156117f357600080fd5b6117fc8361171c565b946020939093013593505050565b60008060006060848603121561181f57600080fd5b505081359360208301359350604090920135919050565b634e487b7160e01b600052601160045260246000fd5b60008261186957634e487b7160e01b600052601260045260246000fd5b500490565b8181038181111561188157611881611836565b92915050565b8082018082111561188157611881611836565b634e487b7160e01b600052603260045260246000fd5b6000600182016118c2576118c2611836565b5060010190565b634e487b7160e01b600052604160045260246000fd5b6000602082840312156118f157600080fd5b505191905056fea2646970667358221220b7769258a51d8cb7f3714121c50f076b29eb90a1160a16fd9b68b76bf1ac976b64736f6c63430008140033",
  "linkReferences": {},
  "deployedLinkReferences": {}
}