{
  "_format": "hh-sol-artifact-1",
  "contractName": "RewardDistribution",
  "sourceName": "contracts/RewardDistribution.sol",
  "abi": [
    {
      "inputs": [
        {
          "internalType": "uint256",
          "name": "_minimumClaimAmount",
          "type": "uint256"
        },
        {
          "internalType": "uint256",
          "name": "_rewardUpdateInterval",
          "type": "uint256"
        }
      ],
      "stateMutability": "nonpayable",
      "type": "constructor"
    },
    {
      "inputs": [],
      "name": "ContractsNotSet",
      "type": "error"
    },
    {
      "inputs": [],
      "name": "EnforcedPause",
      "type": "error"
    },
    {
      "inputs": [],
      "name": "ExpectedPause",
      "type": "error"
    },
    {
      "inputs": [],
      "name": "InsufficientRewards",
      "type": "error"
    },
    {
      "inputs": [],
      "name": "InvalidAmount",
      "type": "error"
    },
    {
      "inputs": [],
      "name": "NoRewardsToClaim",
      "type": "error"
    },
    {
      "inputs": [
        {
          "internalType": "address",
          "name": "owner",
          "type": "address"
        }
      ],
      "name": "OwnableInvalidOwner",
      "type": "error"
    },
    {
      "inputs": [
        {
          "internalType": "address",
          "name": "account",
          "type": "address"
        }
      ],
      "name": "OwnableUnauthorizedAccount",
      "type": "error"
    },
    {
      "inputs": [],
      "name": "ReentrancyGuardReentrantCall",
      "type": "error"
    },
    {
      "inputs": [],
      "name": "RewardUpdateTooSoon",
      "type": "error"
    },
    {
      "anonymous": false,
      "inputs": [
        {
          "indexed": false,
          "internalType": "address",
          "name": "stakingContract",
          "type": "address"
        },
        {
          "indexed": false,
          "internalType": "address",
          "name": "aaveIntegration",
          "type": "address"
        }
      ],
      "name": "ContractsSet",
      "type": "event"
    },
    {
      "anonymous": false,
      "inputs": [
        {
          "indexed": false,
          "internalType": "uint256",
          "name": "newAmount",
          "type": "uint256"
        }
      ],
      "name": "MinimumClaimAmountUpdated",
      "type": "event"
    },
    {
      "anonymous": false,
      "inputs": [
        {
          "indexed": true,
          "internalType": "address",
          "name": "previousOwner",
          "type": "address"
        },
        {
          "indexed": true,
          "internalType": "address",
          "name": "newOwner",
          "type": "address"
        }
      ],
      "name": "OwnershipTransferred",
      "type": "event"
    },
    {
      "anonymous": false,
      "inputs": [
        {
          "indexed": false,
          "internalType": "address",
          "name": "account",
          "type": "address"
        }
      ],
      "name": "Paused",
      "type": "event"
    },
    {
      "anonymous": false,
      "inputs": [
        {
          "indexed": false,
          "internalType": "uint256",
          "name": "totalRewards",
          "type": "uint256"
        },
        {
          "indexed": false,
          "internalType": "uint256",
          "name": "rewardRate",
          "type": "uint256"
        }
      ],
      "name": "RewardPoolUpdated",
      "type": "event"
    },
    {
      "anonymous": false,
      "inputs": [
        {
          "indexed": true,
          "internalType": "address",
          "name": "user",
          "type": "address"
        },
        {
          "indexed": false,
          "internalType": "uint256",
          "name": "amount",
          "type": "uint256"
        },
        {
          "indexed": false,
          "internalType": "uint256",
          "name": "timestamp",
          "type": "uint256"
        }
      ],
      "name": "RewardsClaimed",
      "type": "event"
    },
    {
      "anonymous": false,
      "inputs": [
        {
          "indexed": false,
          "internalType": "uint256",
          "name": "newRewards",
          "type": "uint256"
        },
        {
          "indexed": false,
          "internalType": "uint256",
          "name": "timestamp",
          "type": "uint256"
        }
      ],
      "name": "RewardsUpdated",
      "type": "event"
    },
    {
      "anonymous": false,
      "inputs": [
        {
          "indexed": false,
          "internalType": "address",
          "name": "account",
          "type": "address"
        }
      ],
      "name": "Unpaused",
      "type": "event"
    },
    {
      "inputs": [],
      "name": "REWARD_PRECISION",
      "outputs": [
        {
          "internalType": "uint256",
          "name": "",
          "type": "uint256"
        }
      ],
      "stateMutability": "view",
      "type": "function"
    },
    {
      "inputs": [],
      "name": "aaveIntegration",
      "outputs": [
        {
          "internalType": "contract AaveIntegration",
          "name": "",
          "type": "address"
        }
      ],
      "stateMutability": "view",
      "type": "function"
    },
    {
      "inputs": [
        {
          "internalType": "address",
          "name": "user",
          "type": "address"
        }
      ],
      "name": "calculateUserReward",
      "outputs": [
        {
          "internalType": "uint256",
          "name": "",
          "type": "uint256"
        }
      ],
      "stateMutability": "view",
      "type": "function"
    },
    {
      "inputs": [],
      "name": "claimRewards",
      "outputs": [],
      "stateMutability": "nonpayable",
      "type": "function"
    },
    {
      "inputs": [
        {
          "internalType": "uint256",
          "name": "amount",
          "type": "uint256"
        }
      ],
      "name": "emergencyWithdrawRewards",
      "outputs": [],
      "stateMutability": "nonpayable",
      "type": "function"
    },
    {
      "inputs": [],
      "name": "getContractBalance",
      "outputs": [
        {
          "internalType": "uint256",
          "name": "",
          "type": "uint256"
        }
      ],
      "stateMutability": "view",
      "type": "function"
    },
    {
      "inputs": [],
      "name": "getDistributedRewards",
      "outputs": [
        {
          "internalType": "uint256",
          "name": "",
          "type": "uint256"
        }
      ],
      "stateMutability": "view",
      "type": "function"
    },
    {
      "inputs": [],
      "name": "getRewardRate",
      "outputs": [
        {
          "internalType": "uint256",
          "name": "",
          "type": "uint256"
        }
      ],
      "stateMutability": "view",
      "type": "function"
    },
    {
      "inputs": [],
      "name": "getTotalRewards",
      "outputs": [
        {
          "internalType": "uint256",
          "name": "",
          "type": "uint256"
        }
      ],
      "stateMutability": "view",
      "type": "function"
    },
    {
      "inputs": [
        {
          "internalType": "address",
          "name": "user",
          "type": "address"
        }
      ],
      "name": "getUserClaimableReward",
      "outputs": [
        {
          "internalType": "uint256",
          "name": "",
          "type": "uint256"
        }
      ],
      "stateMutability": "view",
      "type": "function"
    },
    {
      "inputs": [
        {
          "internalType": "address",
          "name": "user",
          "type": "address"
        }
      ],
      "name": "getUserRewardInfo",
      "outputs": [
        {
          "components": [
            {
              "internalType": "uint256",
              "name": "totalClaimed",
              "type": "uint256"
            },
            {
              "internalType": "uint256",
              "name": "lastClaimTime",
              "type": "uint256"
            }
          ],
          "internalType": "struct RewardDistribution.UserReward",
          "name": "",
          "type": "tuple"
        }
      ],
      "stateMutability": "view",
      "type": "function"
    },
    {
      "inputs": [],
      "name": "lastRewardUpdate",
      "outputs": [
        {
          "internalType": "uint256",
          "name": "",
          "type": "uint256"
        }
      ],
      "stateMutability": "view",
      "type": "function"
    },
    {
      "inputs": [],
      "name": "minimumClaimAmount",
      "outputs": [
        {
          "internalType": "uint256",
          "name": "",
          "type": "uint256"
        }
      ],
      "stateMutability": "view",
      "type": "function"
    },
    {
      "inputs": [
        {
          "internalType": "address",
          "name": "user",
          "type": "address"
        }
      ],
      "name": "notifyStake",
      "outputs": [],
      "stateMutability": "nonpayable",
      "type": "function"
    },
    {
      "inputs": [
        {
          "internalType": "address",
          "name": "user",
          "type": "address"
        }
      ],
      "name": "notifyUnstake",
      "outputs": [],
      "stateMutability": "nonpayable",
      "type": "function"
    },
    {
      "inputs": [],
      "name": "owner",
      "outputs": [
        {
          "internalType": "address",
          "name": "",
          "type": "address"
        }
      ],
      "stateMutability": "view",
      "type": "function"
    },
    {
      "inputs": [],
      "name": "pause",
      "outputs": [],
      "stateMutability": "nonpayable",
      "type": "function"
    },
    {
      "inputs": [],
      "name": "paused",
      "outputs": [
        {
          "internalType": "bool",
          "name": "",
          "type": "bool"
        }
      ],
      "stateMutability": "view",
      "type": "function"
    },
    {
      "inputs": [],
      "name": "renounceOwnership",
      "outputs": [],
      "stateMutability": "nonpayable",
      "type": "function"
    },
    {
      "inputs": [],
      "name": "rewardPool",
      "outputs": [
        {
          "internalType": "uint256",
          "name": "totalRewards",
          "type": "uint256"
        },
        {
          "internalType": "uint256",
          "name": "distributedRewards",
          "type": "uint256"
        },
        {
          "internalType": "uint256",
          "name": "lastUpdateTime",
          "type": "uint256"
        },
        {
          "internalType": "uint256",
          "name": "rewardRate",
          "type": "uint256"
        },
        {
          "internalType": "uint256",
          "name": "accumulatedRewardPerToken",
          "type": "uint256"
        }
      ],
      "stateMutability": "view",
      "type": "function"
    },
    {
      "inputs": [],
      "name": "rewardUpdateInterval",
      "outputs": [
        {
          "internalType": "uint256",
          "name": "",
          "type": "uint256"
        }
      ],
      "stateMutability": "view",
      "type": "function"
    },
    {
      "inputs": [
        {
          "internalType": "address",
          "name": "_stakingContract",
          "type": "address"
        },
        {
          "internalType": "address",
          "name": "_aaveIntegration",
          "type": "address"
        }
      ],
      "name": "setContracts",
      "outputs": [],
      "stateMutability": "nonpayable",
      "type": "function"
    },
    {
      "inputs": [
        {
          "internalType": "uint256",
          "name": "_minimumClaimAmount",
          "type": "uint256"
        }
      ],
      "name": "setMinimumClaimAmount",
      "outputs": [],
      "stateMutability": "nonpayable",
      "type": "function"
    },
    {
      "inputs": [],
      "name": "stakingContract",
      "outputs": [
        {
          "internalType": "contract StakingContract",
          "name": "",
          "type": "address"
        }
      ],
      "stateMutability": "view",
      "type": "function"
    },
    {
      "inputs": [
        {
          "internalType": "address",
          "name": "newOwner",
          "type": "address"
        }
      ],
      "name": "transferOwnership",
      "outputs": [],
      "stateMutability": "nonpayable",
      "type": "function"
    },
    {
      "inputs": [],
      "name": "unpause",
      "outputs": [],
      "stateMutability": "nonpayable",
      "type": "function"
    },
    {
      "inputs": [],
      "name": "updateRewards",
      "outputs": [],
      "stateMutability": "nonpayable",
      "type": "function"
    },
    {
      "inputs": [
        {
          "internalType": "address",
          "name": "",
          "type": "address"
        }
      ],
      "name": "userLastStakeTime",
      "outputs": [
        {
          "internalType": "uint256",
          "name": "",
          "type": "uint256"
        }
      ],
      "stateMutability": "view",
      "type": "function"
    },
    {
      "inputs": [
        {
          "internalType": "address",
          "name": "",
          "type": "address"
        }
      ],
      "name": "userRewards",
      "outputs": [
        {
          "internalType": "uint256",
          "name": "totalClaimed",
          "type": "uint256"
        },
        {
          "internalType": "uint256",
          "name": "lastClaimTime",
          "type": "uint256"
        }
      ],
      "stateMutability": "view",
      "type": "function"
    },
    {
      "stateMutability": "payable",
      "type": "receive"
    }
  ],
  "bytecode": "0x608060405234801561001057600080fd5b5060405161114238038061114283398101604081905261002f9161010b565b6001600055338061005a57604051631e4fbdf760e01b81526000600482015260240160405180910390fd5b610063816100b9565b50600b91909155600c5542600d8190556040805160a0810182526000808252602082018190529181018390526060810182905260800181905260048190556005819055600691909155600781905560085561012f565b600180546001600160a01b038381166001600160a01b0319831681179093556040519116919082907f8be0079c531659141344cd1fd0a4f28419497f9722a3daafe3b4186f6b6457e090600090a35050565b6000806040838503121561011e57600080fd5b505080516020909101519092909150565b6110048061013e6000396000f3fe6080604052600436106101c65760003560e01c8063715018a6116100f7578063a3c2710d11610095578063e627f2db11610064578063e627f2db14610557578063ee99205c1461056c578063f2fde38b1461058c578063fb91d954146105ac57600080fd5b8063a3c2710d14610501578063a799f1ef14610517578063cf2b9f48146101d2578063d8952a491461053757600080fd5b80638456cb59116100d15780638456cb59146104815780638c963779146104965780638da5cb5b146104b657806397cd023f146104d457600080fd5b8063715018a6146104375780637e1a37861461044c5780638212c17d1461046157600080fd5b80633e158b0c1161016457806360cac50c1161013e57806360cac50c1461034257806366666aa91461035857806369517310146103a75780636f9fb98a1461042457600080fd5b80633e158b0c146102ee5780633f4ba83a146103035780635c975abb1461031857600080fd5b806328275b07116101a057806328275b071461028657806330409c851461029b578063372500ab146102bd5780633d6aa5e1146102d257600080fd5b8063050ae981146101d25780630660f1e8146102055780630d578f781461024e57600080fd5b366101cd57005b600080fd5b3480156101de57600080fd5b506101f26101ed366004610ed2565b6105c2565b6040519081526020015b60405180910390f35b34801561021157600080fd5b50610239610220366004610ed2565b6009602052600090815260409020805460019091015482565b604080519283526020830191909152016101fc565b34801561025a57600080fd5b5060035461026e906001600160a01b031681565b6040516001600160a01b0390911681526020016101fc565b34801561029257600080fd5b506005546101f2565b3480156102a757600080fd5b506102bb6102b6366004610ef4565b6105d3565b005b3480156102c957600080fd5b506102bb610685565b3480156102de57600080fd5b506101f2670de0b6b3a764000081565b3480156102fa57600080fd5b506102bb610811565b34801561030f57600080fd5b506102bb6108ad565b34801561032457600080fd5b50600154600160a01b900460ff1660405190151581526020016101fc565b34801561034e57600080fd5b506101f2600b5481565b34801561036457600080fd5b5060045460055460065460075460085461037f949392919085565b604080519586526020860194909452928401919091526060830152608082015260a0016101fc565b3480156103b357600080fd5b506104096103c2366004610ed2565b6040805180820190915260008082526020820152506001600160a01b0316600090815260096020908152604091829020825180840190935280548352600101549082015290565b604080518251815260209283015192810192909252016101fc565b34801561043057600080fd5b50476101f2565b34801561044357600080fd5b506102bb6108bd565b34801561045857600080fd5b506007546101f2565b34801561046d57600080fd5b506102bb61047c366004610ed2565b6108cf565b34801561048d57600080fd5b506102bb6108ef565b3480156104a257600080fd5b506102bb6104b1366004610ed2565b6108ff565b3480156104c257600080fd5b506001546001600160a01b031661026e565b3480156104e057600080fd5b506101f26104ef366004610ed2565b600a6020526000908152604090205481565b34801561050d57600080fd5b506101f2600d5481565b34801561052357600080fd5b506102bb610532366004610ef4565b610938565b34801561054357600080fd5b506102bb610552366004610f0d565b61097b565b34801561056357600080fd5b506004546101f2565b34801561057857600080fd5b5060025461026e906001600160a01b031681565b34801561059857600080fd5b506102bb6105a7366004610ed2565b6109f2565b3480156105b857600080fd5b506101f2600c5481565b60006105cd82610a32565b92915050565b6105db610c1e565b478111156105fc576040516356e16dff60e11b815260040160405180910390fd5b60006106106001546001600160a01b031690565b6001600160a01b03168260405160006040518083038185875af1925050503d806000811461065a576040519150601f19603f3d011682016040523d82523d6000602084013e61065f565b606091505b5050905080610681576040516356e16dff60e11b815260040160405180910390fd5b5050565b61068d610c4b565b610695610c75565b61069d610ca0565b60006106a833610a32565b9050806000036106cb576040516373380d9960e01b815260040160405180910390fd5b600b548110156106ee576040516356e16dff60e11b815260040160405180910390fd5b8047101561070f576040516356e16dff60e11b815260040160405180910390fd5b336000908152600960205260408120805483929061072e908490610f56565b9091555050336000908152600960205260408120426001909101556005805483929061075b908490610f56565b9091555050604051600090339083908381818185875af1925050503d80600081146107a2576040519150601f19603f3d011682016040523d82523d6000602084013e6107a7565b606091505b50509050806107c9576040516356e16dff60e11b815260040160405180910390fd5b6040805183815242602082015233917fdacbdde355ba930696a362ea6738feb9f8bd52dfb3d81947558fd3217e23e325910160405180910390a2505061080f6001600055565b565b610819610c4b565b610821610c75565b6002546001600160a01b0316158061084257506003546001600160a01b0316155b156108605760405163f3becd3760e01b815260040160405180910390fd5b610868610ca0565b600454604080519182524260208301527fcd7c861d63893659123f817b192b8621ff1923a7c4589c260173cedcf9e986a6910160405180910390a161080f6001600055565b6108b5610c1e565b61080f610da2565b6108c5610c1e565b61080f6000610df7565b6002546001600160a01b031633146108e45750565b6108ec610ca0565b50565b6108f7610c1e565b61080f610e49565b6002546001600160a01b031633146109145750565b61091c610ca0565b6001600160a01b03166000908152600a60205260409020429055565b610940610c1e565b600b8190556040518181527f9b3538e36fd6e8dbc7af44268c489f4e59a23dcacd7f6728c579e9793f5500be9060200160405180910390a150565b610983610c1e565b600280546001600160a01b038481166001600160a01b03199283168117909355600380549185169190921681179091556040805192835260208301919091527f14662a0fccd762a05d5e1fa6afdd204554c4cf90fe58b5c5947f664fb71925f591015b60405180910390a15050565b6109fa610c1e565b6001600160a01b038116610a2957604051631e4fbdf760e01b8152600060048201526024015b60405180910390fd5b6108ec81610df7565b60025460405163719de1ef60e01b81526001600160a01b038381166004830152600092839291169063719de1ef90602401602060405180830381865afa158015610a80573d6000803e3d6000fd5b505050506040513d601f19601f82011682018060405250810190610aa49190610f69565b905080600003610ab75750600092915050565b6003546000906001600160a01b031615610b4557600360009054906101000a90046001600160a01b03166001600160a01b031663564afa3a6040518163ffffffff1660e01b8152600401602060405180830381865afa158015610b1e573d6000803e3d6000fd5b505050506040513d601f19601f82011682018060405250810190610b429190610f69565b90505b600254604080516340bd8e6960e11b815290516000926001600160a01b03169163817b1cd29160048083019260209291908290030181865afa158015610b8f573d6000803e3d6000fd5b505050506040513d601f19601f82011682018060405250810190610bb39190610f69565b905080600003610bc857506000949350505050565b600081610bd58585610f82565b610bdf9190610f99565b6001600160a01b038716600090815260096020526040902054909150808211610c09576000610c13565b610c138183610fbb565b979650505050505050565b6001546001600160a01b0316331461080f5760405163118cdaa760e01b8152336004820152602401610a20565b600260005403610c6e57604051633ee5aeb560e01b815260040160405180910390fd5b6002600055565b600154600160a01b900460ff161561080f5760405163d93c066560e01b815260040160405180910390fd5b6003546001600160a01b0316610cb257565b60035460408051632b257d1d60e11b815290516000926001600160a01b03169163564afa3a9160048083019260209291908290030181865afa158015610cfc573d6000803e3d6000fd5b505050506040513d601f19601f82011682018060405250810190610d209190610f69565b6004819055426006819055600d819055909150600090610d409080610fbb565b9050600081118015610d525750600082115b15610d6557610d618183610f99565b6007555b6004546007546040517f814cb19bc63c7edd0de527a0bdfad44ccc4485fc2cd0322297a122fdb36034ac926109e692908252602082015260400190565b610daa610e8c565b6001805460ff60a01b191690557f5db9ee0a495bf2e6ff9c91a7834c1ba4fdd244a5e8aa4e537bd38aeae4b073aa335b6040516001600160a01b03909116815260200160405180910390a1565b600180546001600160a01b038381166001600160a01b0319831681179093556040519116919082907f8be0079c531659141344cd1fd0a4f28419497f9722a3daafe3b4186f6b6457e090600090a35050565b610e51610c75565b6001805460ff60a01b1916600160a01b1790557f62e78cea01bee320cd4e420270b5ea74000d11b0c9f74754ebdbfc544b05a258610dda3390565b600154600160a01b900460ff1661080f57604051638dfc202b60e01b815260040160405180910390fd5b80356001600160a01b0381168114610ecd57600080fd5b919050565b600060208284031215610ee457600080fd5b610eed82610eb6565b9392505050565b600060208284031215610f0657600080fd5b5035919050565b60008060408385031215610f2057600080fd5b610f2983610eb6565b9150610f3760208401610eb6565b90509250929050565b634e487b7160e01b600052601160045260246000fd5b808201808211156105cd576105cd610f40565b600060208284031215610f7b57600080fd5b5051919050565b80820281158282048414176105cd576105cd610f40565b600082610fb657634e487b7160e01b600052601260045260246000fd5b500490565b818103818111156105cd576105cd610f4056fea264697066735822122079750778b38f44131556295dbf18a8af43f62a8550d53cd8ca2ec7ad4e07cdc664736f6c63430008140033",
  "linkReferences": {},
  "deployedLinkReferences": {}
}