{
  "_format": "hh-sol-artifact-1",
  "contractName": "RealAaveIntegration",
  "sourceName": "contracts/RealAaveIntegration.sol",
  "abi": [
    {
      "inputs": [
        {
          "internalType": "address",
          "name": "addressesProvider",
          "type": "address"
        },
        {
          "internalType": "address",
          "name": "wrappedNativeGateway",
          "type": "address"
        },
        {
          "internalType": "address",
          "name": "reserveAsset_",
          "type": "address"
        }
      ],
      "stateMutability": "nonpayable",
      "type": "constructor"
    },
    {
      "inputs": [],
      "name": "AaveOperationFailed",
      "type": "error"
    },
    {
      "inputs": [],
      "name": "ContractNotSet",
      "type": "error"
    },
    {
      "inputs": [],
      "name": "EnforcedPause",
      "type": "error"
    },
    {
      "inputs": [],
      "name": "ExpectedPause",
      "type": "error"
    },
    {
      "inputs": [],
      "name": "InsufficientBalance",
      "type": "error"
    },
    {
      "inputs": [],
      "name": "InvalidAmount",
      "type": "error"
    },
    {
      "inputs": [
        {
          "internalType": "address",
          "name": "owner",
          "type": "address"
        }
      ],
      "name": "OwnableInvalidOwner",
      "type": "error"
    },
    {
      "inputs": [
        {
          "internalType": "address",
          "name": "account",
          "type": "address"
        }
      ],
      "name": "OwnableUnauthorizedAccount",
      "type": "error"
    },
    {
      "inputs": [],
      "name": "ReentrancyGuardReentrantCall",
      "type": "error"
    },
    {
      "anonymous": false,
      "inputs": [
        {
          "indexed": false,
          "internalType": "address",
          "name": "provider",
          "type": "address"
        },
        {
          "indexed": false,
          "internalType": "address",
          "name": "gateway",
          "type": "address"
        },
        {
          "indexed": false,
          "internalType": "address",
          "name": "reserveAsset",
          "type": "address"
        },
        {
          "indexed": false,
          "internalType": "address",
          "name": "aToken",
          "type": "address"
        }
      ],
      "name": "AaveConfigured",
      "type": "event"
    },
    {
      "anonymous": false,
      "inputs": [
        {
          "indexed": false,
          "internalType": "address",
          "name": "lendingPool",
          "type": "address"
        },
        {
          "indexed": false,
          "internalType": "address",
          "name": "aToken",
          "type": "address"
        }
      ],
      "name": "AaveContractsUpdated",
      "type": "event"
    },
    {
      "anonymous": false,
      "inputs": [
        {
          "indexed": true,
          "internalType": "address",
          "name": "contractAddress",
          "type": "address"
        }
      ],
      "name": "AuthorizedContractAdded",
      "type": "event"
    },
    {
      "anonymous": false,
      "inputs": [
        {
          "indexed": true,
          "internalType": "address",
          "name": "contractAddress",
          "type": "address"
        }
      ],
      "name": "AuthorizedContractRemoved",
      "type": "event"
    },
    {
      "anonymous": false,
      "inputs": [
        {
          "indexed": false,
          "internalType": "uint256",
          "name": "amount",
          "type": "uint256"
        },
        {
          "indexed": false,
          "internalType": "uint256",
          "name": "timestamp",
          "type": "uint256"
        }
      ],
      "name": "DepositedToAave",
      "type": "event"
    },
    {
      "anonymous": false,
      "inputs": [
        {
          "indexed": false,
          "internalType": "uint256",
          "name": "newInterest",
          "type": "uint256"
        },
        {
          "indexed": false,
          "internalType": "uint256",
          "name": "timestamp",
          "type": "uint256"
        }
      ],
      "name": "InterestUpdated",
      "type": "event"
    },
    {
      "anonymous": false,
      "inputs": [
        {
          "indexed": true,
          "internalType": "address",
          "name": "previousOwner",
          "type": "address"
        },
        {
          "indexed": true,
          "internalType": "address",
          "name": "newOwner",
          "type": "address"
        }
      ],
      "name": "OwnershipTransferred",
      "type": "event"
    },
    {
      "anonymous": false,
      "inputs": [
        {
          "indexed": false,
          "internalType": "address",
          "name": "account",
          "type": "address"
        }
      ],
      "name": "Paused",
      "type": "event"
    },
    {
      "anonymous": false,
      "inputs": [
        {
          "indexed": false,
          "internalType": "address",
          "name": "account",
          "type": "address"
        }
      ],
      "name": "Unpaused",
      "type": "event"
    },
    {
      "anonymous": false,
      "inputs": [
        {
          "indexed": false,
          "internalType": "uint256",
          "name": "amount",
          "type": "uint256"
        },
        {
          "indexed": false,
          "internalType": "uint256",
          "name": "timestamp",
          "type": "uint256"
        }
      ],
      "name": "WithdrawnFromAave",
      "type": "event"
    },
    {
      "inputs": [],
      "name": "aToken",
      "outputs": [
        {
          "internalType": "contract IERC20",
          "name": "",
          "type": "address"
        }
      ],
      "stateMutability": "view",
      "type": "function"
    },
    {
      "inputs": [
        {
          "internalType": "address",
          "name": "contractAddress",
          "type": "address"
        }
      ],
      "name": "addAuthorizedContract",
      "outputs": [],
      "stateMutability": "nonpayable",
      "type": "function"
    },
    {
      "inputs": [
        {
          "internalType": "address",
          "name": "",
          "type": "address"
        }
      ],
      "name": "authorizedContracts",
      "outputs": [
        {
          "internalType": "bool",
          "name": "",
          "type": "bool"
        }
      ],
      "stateMutability": "view",
      "type": "function"
    },
    {
      "inputs": [
        {
          "internalType": "uint256",
          "name": "amount",
          "type": "uint256"
        }
      ],
      "name": "depositToAave",
      "outputs": [],
      "stateMutability": "payable",
      "type": "function"
    },
    {
      "inputs": [
        {
          "internalType": "uint256",
          "name": "amount",
          "type": "uint256"
        }
      ],
      "name": "emergencyWithdraw",
      "outputs": [],
      "stateMutability": "nonpayable",
      "type": "function"
    },
    {
      "inputs": [],
      "name": "gateway",
      "outputs": [
        {
          "internalType": "contract IWrappedTokenGatewayV3",
          "name": "",
          "type": "address"
        }
      ],
      "stateMutability": "view",
      "type": "function"
    },
    {
      "inputs": [],
      "name": "getATokenBalance",
      "outputs": [
        {
          "internalType": "uint256",
          "name": "",
          "type": "uint256"
        }
      ],
      "stateMutability": "view",
      "type": "function"
    },
    {
      "inputs": [],
      "name": "getAavePosition",
      "outputs": [
        {
          "components": [
            {
              "internalType": "uint256",
              "name": "depositedAmount",
              "type": "uint256"
            },
            {
              "internalType": "uint256",
              "name": "aTokenBalance",
              "type": "uint256"
            },
            {
              "internalType": "uint256",
              "name": "accruedInterest",
              "type": "uint256"
            },
            {
              "internalType": "uint256",
              "name": "lastInterestUpdate",
              "type": "uint256"
            }
          ],
          "internalType": "struct AaveIntegration.AavePosition",
          "name": "",
          "type": "tuple"
        }
      ],
      "stateMutability": "view",
      "type": "function"
    },
    {
      "inputs": [],
      "name": "getAccruedInterest",
      "outputs": [
        {
          "internalType": "uint256",
          "name": "",
          "type": "uint256"
        }
      ],
      "stateMutability": "view",
      "type": "function"
    },
    {
      "inputs": [],
      "name": "getContractBalance",
      "outputs": [
        {
          "internalType": "uint256",
          "name": "",
          "type": "uint256"
        }
      ],
      "stateMutability": "view",
      "type": "function"
    },
    {
      "inputs": [],
      "name": "getTotalDeposited",
      "outputs": [
        {
          "internalType": "uint256",
          "name": "",
          "type": "uint256"
        }
      ],
      "stateMutability": "view",
      "type": "function"
    },
    {
      "inputs": [],
      "name": "lastInterestCalculation",
      "outputs": [
        {
          "internalType": "uint256",
          "name": "",
          "type": "uint256"
        }
      ],
      "stateMutability": "view",
      "type": "function"
    },
    {
      "inputs": [],
      "name": "mockAToken",
      "outputs": [
        {
          "internalType": "address",
          "name": "",
          "type": "address"
        }
      ],
      "stateMutability": "view",
      "type": "function"
    },
    {
      "inputs": [],
      "name": "mockLendingPool",
      "outputs": [
        {
          "internalType": "address",
          "name": "",
          "type": "address"
        }
      ],
      "stateMutability": "view",
      "type": "function"
    },
    {
      "inputs": [],
      "name": "owner",
      "outputs": [
        {
          "internalType": "address",
          "name": "",
          "type": "address"
        }
      ],
      "stateMutability": "view",
      "type": "function"
    },
    {
      "inputs": [],
      "name": "pause",
      "outputs": [],
      "stateMutability": "nonpayable",
      "type": "function"
    },
    {
      "inputs": [],
      "name": "paused",
      "outputs": [
        {
          "internalType": "bool",
          "name": "",
          "type": "bool"
        }
      ],
      "stateMutability": "view",
      "type": "function"
    },
    {
      "inputs": [],
      "name": "pool",
      "outputs": [
        {
          "internalType": "contract IPool",
          "name": "",
          "type": "address"
        }
      ],
      "stateMutability": "view",
      "type": "function"
    },
    {
      "inputs": [
        {
          "internalType": "address",
          "name": "contractAddress",
          "type": "address"
        }
      ],
      "name": "removeAuthorizedContract",
      "outputs": [],
      "stateMutability": "nonpayable",
      "type": "function"
    },
    {
      "inputs": [],
      "name": "renounceOwnership",
      "outputs": [],
      "stateMutability": "nonpayable",
      "type": "function"
    },
    {
      "inputs": [],
      "name": "reserveAsset",
      "outputs": [
        {
          "internalType": "address",
          "name": "",
          "type": "address"
        }
      ],
      "stateMutability": "view",
      "type": "function"
    },
    {
      "inputs": [
        {
          "internalType": "address",
          "name": "_lendingPool",
          "type": "address"
        },
        {
          "internalType": "address",
          "name": "_aToken",
          "type": "address"
        }
      ],
      "name": "setAaveContracts",
      "outputs": [],
      "stateMutability": "nonpayable",
      "type": "function"
    },
    {
      "inputs": [],
      "name": "totalDeposited",
      "outputs": [
        {
          "internalType": "uint256",
          "name": "",
          "type": "uint256"
        }
      ],
      "stateMutability": "view",
      "type": "function"
    },
    {
      "inputs": [],
      "name": "totalInterestEarned",
      "outputs": [
        {
          "internalType": "uint256",
          "name": "",
          "type": "uint256"
        }
      ],
      "stateMutability": "view",
      "type": "function"
    },
    {
      "inputs": [],
      "name": "totalPosition",
      "outputs": [
        {
          "internalType": "uint256",
          "name": "depositedAmount",
          "type": "uint256"
        },
        {
          "internalType": "uint256",
          "name": "aTokenBalance",
          "type": "uint256"
        },
        {
          "internalType": "uint256",
          "name": "accruedInterest",
          "type": "uint256"
        },
        {
          "internalType": "uint256",
          "name": "lastInterestUpdate",
          "type": "uint256"
        }
      ],
      "stateMutability": "view",
      "type": "function"
    },
    {
      "inputs": [
        {
          "internalType": "address",
          "name": "newOwner",
          "type": "address"
        }
      ],
      "name": "transferOwnership",
      "outputs": [],
      "stateMutability": "nonpayable",
      "type": "function"
    },
    {
      "inputs": [],
      "name": "unpause",
      "outputs": [],
      "stateMutability": "nonpayable",
      "type": "function"
    },
    {
      "inputs": [],
      "name": "updateInterest",
      "outputs": [],
      "stateMutability": "nonpayable",
      "type": "function"
    },
    {
      "inputs": [
        {
          "internalType": "uint256",
          "name": "amount",
          "type": "uint256"
        },
        {
          "internalType": "address payable",
          "name": "recipient",
          "type": "address"
        }
      ],
      "name": "withdrawForContract",
      "outputs": [],
      "stateMutability": "nonpayable",
      "type": "function"
    },
    {
      "inputs": [
        {
          "internalType": "uint256",
          "name": "amount",
          "type": "uint256"
        }
      ],
      "name": "withdrawFromAave",
      "outputs": [],
      "stateMutability": "nonpayable",
      "type": "function"
    },
    {
      "stateMutability": "payable",
      "type": "receive"
    }
  ],
  "bytecode": "0x60806040523480156200001157600080fd5b506040516200174438038062001744833981016040819052620000349162000265565b600160005533806200006057604051631e4fbdf760e01b81526000600482015260240160405180910390fd5b6200006b81620001f6565b5042600881905550826001600160a01b031663026b1d5f6040518163ffffffff1660e01b8152600401602060405180830381865afa158015620000b2573d6000803e3d6000fd5b505050506040513d601f19601f82011682018060405250810190620000d89190620002af565b600c80546001600160a01b03199081166001600160a01b03938416908117909255600d80548216868516179055600f805490911692841692831790556040516335ea6a7560e01b815260048101929092526000916335ea6a75906024016101e060405180830381865afa15801562000154573d6000803e3d6000fd5b505050506040513d601f19601f820116820180604052508101906200017a91906200039e565b610100810151600e80546001600160a01b0319166001600160a01b0392831690811790915560408051888416815287841660208201529286169083015260608201529091507fcc4045e6413a845e75df848087fa4b28d557635e469044be4a1bab18d5ed67b89060800160405180910390a150505050620004e2565b600180546001600160a01b038381166001600160a01b0319831681179093556040519116919082907f8be0079c531659141344cd1fd0a4f28419497f9722a3daafe3b4186f6b6457e090600090a35050565b80516001600160a01b03811681146200026057600080fd5b919050565b6000806000606084860312156200027b57600080fd5b620002868462000248565b9250620002966020850162000248565b9150620002a66040850162000248565b90509250925092565b600060208284031215620002c257600080fd5b620002cd8262000248565b9392505050565b6040516101e081016001600160401b03811182821017156200030657634e487b7160e01b600052604160045260246000fd5b60405290565b6000602082840312156200031f57600080fd5b604051602081016001600160401b03811182821017156200035057634e487b7160e01b600052604160045260246000fd5b6040529151825250919050565b80516001600160801b03811681146200026057600080fd5b805164ffffffffff811681146200026057600080fd5b805161ffff811681146200026057600080fd5b60006101e08284031215620003b257600080fd5b620003bc620002d4565b620003c884846200030c565b8152620003d8602084016200035d565b6020820152620003eb604084016200035d565b6040820152620003fe606084016200035d565b606082015262000411608084016200035d565b60808201526200042460a084016200035d565b60a08201526200043760c0840162000375565b60c08201526200044a60e084016200038b565b60e08201526101006200045f81850162000248565b908201526101206200047384820162000248565b908201526101406200048784820162000248565b908201526101606200049b84820162000248565b90820152610180620004af8482016200035d565b908201526101a0620004c38482016200035d565b908201526101c0620004d78482016200035d565b908201529392505050565b61125280620004f26000396000f3fe6080604052600436106101d05760003560e01c806386f6a828116100f7578063d148279111610095578063f2fde38b11610064578063f2fde38b14610506578063f85cb5c814610526578063f9ec99ac14610546578063ff50abdc1461058e57600080fd5b8063d148279114610481578063d5b9221b14610496578063e6b165ed146104c6578063e8390f77146104e657600080fd5b8063a0c1f15e116100d1578063a0c1f15e14610416578063a2b8994414610436578063b68ef55914610456578063b7d93f341461046b57600080fd5b806386f6a828146103c25780638da5cb5b146103d857806398eaa4a7146103f657600080fd5b8063564afa3a1161016f5780636f9fb98a1161013e5780636f9fb98a14610365578063715018a6146103785780638456cb591461038d57806385c7803d146103a257600080fd5b8063564afa3a146102f25780635c975abb14610307578063688f237b1461033257806368fd2d801461035257600080fd5b806316f0115b116101ab57806316f0115b1461025857806317fbe354146102785780633f4ba83a146102bb5780635312ea8e146102d257600080fd5b8062c2d143146101dc578063116191b6146102005780631354f0951461023857600080fd5b366101d757005b600080fd5b3480156101e857600080fd5b506003545b6040519081526020015b60405180910390f35b34801561020c57600080fd5b50600d54610220906001600160a01b031681565b6040516001600160a01b0390911681526020016101f7565b34801561024457600080fd5b50600a54610220906001600160a01b031681565b34801561026457600080fd5b50600c54610220906001600160a01b031681565b34801561028457600080fd5b5060025460035460045460055461029b9392919084565b6040805194855260208501939093529183015260608201526080016101f7565b3480156102c757600080fd5b506102d06105a4565b005b3480156102de57600080fd5b506102d06102ed366004611111565b6105b6565b3480156102fe57600080fd5b506101ed610668565b34801561031357600080fd5b50600154600160a01b900460ff165b60405190151581526020016101f7565b34801561033e57600080fd5b506102d061034d366004611111565b610677565b6102d0610360366004611111565b610893565b34801561037157600080fd5b50476101ed565b34801561038457600080fd5b506102d0610a2b565b34801561039957600080fd5b506102d0610a3d565b3480156103ae57600080fd5b506102d06103bd36600461113f565b610a4d565b3480156103ce57600080fd5b506101ed60085481565b3480156103e457600080fd5b506001546001600160a01b0316610220565b34801561040257600080fd5b506102d0610411366004611178565b610ac3565b34801561042257600080fd5b50600e54610220906001600160a01b031681565b34801561044257600080fd5b506102d061045136600461119c565b610b17565b34801561046257600080fd5b506002546101ed565b34801561047757600080fd5b506101ed60075481565b34801561048d57600080fd5b506102d0610d80565b3480156104a257600080fd5b506103226104b1366004611178565b60096020526000908152604090205460ff1681565b3480156104d257600080fd5b506102d06104e1366004611178565b610d88565b3480156104f257600080fd5b50600b54610220906001600160a01b031681565b34801561051257600080fd5b506102d0610521366004611178565b610dd9565b34801561053257600080fd5b50600f54610220906001600160a01b031681565b34801561055257600080fd5b5061055b610e19565b6040516101f791908151815260208083015190820152604080830151908201526060918201519181019190915260800190565b34801561059a57600080fd5b506101ed60065481565b6105ac610e7f565b6105b4610eac565b565b6105be610e7f565b478111156105df57604051631e9acf1760e31b815260040160405180910390fd5b60006105f36001546001600160a01b031690565b6001600160a01b03168260405160006040518083038185875af1925050503d806000811461063d576040519150601f19603f3d011682016040523d82523d6000602084013e610642565b606091505b50509050806106645760405163522cc4ff60e11b815260040160405180910390fd5b5050565b6000610672610f01565b905090565b61067f610f99565b610687610fc3565b806000036106a85760405163162908e360e11b815260040160405180910390fd5b6002548111156106cb57604051631e9acf1760e31b815260040160405180910390fd5b6106d3610fee565b600d54600c54604051630402806960e51b81526001600160a01b039182166004820152602481018490523060448201529116906380500d2090606401600060405180830381600087803b15801561072957600080fd5b505af115801561073d573d6000803e3d6000fd5b50505050806002600001600082825461075691906111d7565b9091555050600e546040516370a0823160e01b81523060048201526001600160a01b03909116906370a0823190602401602060405180830381865afa1580156107a3573d6000803e3d6000fd5b505050506040513d601f19601f820116820180604052508101906107c791906111f0565b600355600680548291906000906107df9084906111d7565b9091555050604051600090339083908381818185875af1925050503d8060008114610826576040519150601f19603f3d011682016040523d82523d6000602084013e61082b565b606091505b505090508061084d5760405163522cc4ff60e11b815260040160405180910390fd5b604080518381524260208201527f57501c8e2164a8e257532432c793d9ee7bb35236acd0592a0b029a7f80a2eb5e910160405180910390a1506108906001600055565b50565b61089b610f99565b6108a3610fc3565b8015806108b05750803414155b156108ce5760405163162908e360e11b815260040160405180910390fd5b6108d6610fee565b600d54600c5460405163474cf53d60e01b81526001600160a01b0391821660048201523060248201526000604482015291169063474cf53d9083906064016000604051808303818588803b15801561092d57600080fd5b505af1158015610941573d6000803e3d6000fd5b5050505050806002600001600082825461095b9190611209565b9091555050600e546040516370a0823160e01b81523060048201526001600160a01b03909116906370a0823190602401602060405180830381865afa1580156109a8573d6000803e3d6000fd5b505050506040513d601f19601f820116820180604052508101906109cc91906111f0565b600355600680548291906000906109e4908490611209565b9091555050604080518281524260208201527fe584f4c1a2f1624163a9abc184bf4b7a205d05032204ef46f06c0b1f6d659b87910160405180910390a16108906001600055565b610a33610e7f565b6105b46000611052565b610a45610e7f565b6105b46110a4565b610a55610e7f565b600a80546001600160a01b038481166001600160a01b03199283168117909355600b80549185169190921681179091556040805192835260208301919091527fbb02c1fb29c6d3498b164c5311f12499b840f5a88f09e28094a59db531e5d209910160405180910390a15050565b610acb610e7f565b6001600160a01b038116600081815260096020526040808220805460ff19166001179055517f351e40fe333cede9dd79a1ef4d16228b1702f272eb2c2166ec3c7ee6a9d4ce2c9190a250565b610b1f610f99565b610b27610fc3565b3360009081526009602052604090205460ff16610b575760405163522cc4ff60e11b815260040160405180910390fd5b81600003610b785760405163162908e360e11b815260040160405180910390fd5b600254821115610b9b57604051631e9acf1760e31b815260040160405180910390fd5b610ba3610fee565b600d54600c54604051630402806960e51b81526001600160a01b039182166004820152602481018590523060448201529116906380500d2090606401600060405180830381600087803b158015610bf957600080fd5b505af1158015610c0d573d6000803e3d6000fd5b505050508160026000016000828254610c2691906111d7565b9091555050600e546040516370a0823160e01b81523060048201526001600160a01b03909116906370a0823190602401602060405180830381865afa158015610c73573d6000803e3d6000fd5b505050506040513d601f19601f82011682018060405250810190610c9791906111f0565b60035560068054839190600090610caf9084906111d7565b9091555082905047811115610cc15750475b8015610d3d576000826001600160a01b03168260405160006040518083038185875af1925050503d8060008114610d14576040519150601f19603f3d011682016040523d82523d6000602084013e610d19565b606091505b5050905080610d3b5760405163522cc4ff60e11b815260040160405180910390fd5b505b604080518281524260208201527f57501c8e2164a8e257532432c793d9ee7bb35236acd0592a0b029a7f80a2eb5e910160405180910390a1506106646001600055565b6105b4610fee565b610d90610e7f565b6001600160a01b038116600081815260096020526040808220805460ff19169055517f98a35376356c1565159c1b44676fcfa951a2287e2a816e208cf92e7aeb585a4f9190a250565b610de1610e7f565b6001600160a01b038116610e1057604051631e4fbdf760e01b8152600060048201526024015b60405180910390fd5b61089081611052565b610e446040518060800160405280600081526020016000815260200160008152602001600081525090565b6040805160808101825260025481526003546020820152600454918101919091526005546060820152610e75610f01565b6040820152919050565b6001546001600160a01b031633146105b45760405163118cdaa760e01b8152336004820152602401610e07565b610eb46110e7565b6001805460ff60a01b191690557f5db9ee0a495bf2e6ff9c91a7834c1ba4fdd244a5e8aa4e537bd38aeae4b073aa335b6040516001600160a01b03909116815260200160405180910390a1565b600e546040516370a0823160e01b815230600482015260009182916001600160a01b03909116906370a0823190602401602060405180830381865afa158015610f4e573d6000803e3d6000fd5b505050506040513d601f19601f82011682018060405250810190610f7291906111f0565b6002549091508111610f8657600091505090565b600254610f9390826111d7565b91505090565b600260005403610fbc57604051633ee5aeb560e01b815260040160405180910390fd5b6002600055565b600154600160a01b900460ff16156105b45760405163d93c066560e01b815260040160405180910390fd5b6000610ff8610f01565b6004819055426005819055600782905560088190556040519192507f46ba83b1bb5d30bf76865a9c4d50e868ef6092e32e9dbca33926fe6d81c1a1299161104791848252602082015260400190565b60405180910390a150565b600180546001600160a01b038381166001600160a01b0319831681179093556040519116919082907f8be0079c531659141344cd1fd0a4f28419497f9722a3daafe3b4186f6b6457e090600090a35050565b6110ac610fc3565b6001805460ff60a01b1916600160a01b1790557f62e78cea01bee320cd4e420270b5ea74000d11b0c9f74754ebdbfc544b05a258610ee43390565b600154600160a01b900460ff166105b457604051638dfc202b60e01b815260040160405180910390fd5b60006020828403121561112357600080fd5b5035919050565b6001600160a01b038116811461089057600080fd5b6000806040838503121561115257600080fd5b823561115d8161112a565b9150602083013561116d8161112a565b809150509250929050565b60006020828403121561118a57600080fd5b81356111958161112a565b9392505050565b600080604083850312156111af57600080fd5b82359150602083013561116d8161112a565b634e487b7160e01b600052601160045260246000fd5b818103818111156111ea576111ea6111c1565b92915050565b60006020828403121561120257600080fd5b5051919050565b808201808211156111ea576111ea6111c156fea26469706673582212205064e4976c2f2a4f14e1467847ed2687e6f7d808df3374a7340f34677c69dfd864736f6c63430008140033",
  "linkReferences": {},
  "deployedLinkReferences": {}
}