{
  "_format": "hh-sol-artifact-1",
  "contractName": "AaveIntegration",
  "sourceName": "contracts/AaveIntegration.sol",
  "abi": [
    {
      "inputs": [],
      "stateMutability": "nonpayable",
      "type": "constructor"
    },
    {
      "inputs": [],
      "name": "AaveOperationFailed",
      "type": "error"
    },
    {
      "inputs": [],
      "name": "ContractNotSet",
      "type": "error"
    },
    {
      "inputs": [],
      "name": "EnforcedPause",
      "type": "error"
    },
    {
      "inputs": [],
      "name": "ExpectedPause",
      "type": "error"
    },
    {
      "inputs": [],
      "name": "InsufficientBalance",
      "type": "error"
    },
    {
      "inputs": [],
      "name": "InvalidAmount",
      "type": "error"
    },
    {
      "inputs": [
        {
          "internalType": "address",
          "name": "owner",
          "type": "address"
        }
      ],
      "name": "OwnableInvalidOwner",
      "type": "error"
    },
    {
      "inputs": [
        {
          "internalType": "address",
          "name": "account",
          "type": "address"
        }
      ],
      "name": "OwnableUnauthorizedAccount",
      "type": "error"
    },
    {
      "inputs": [],
      "name": "ReentrancyGuardReentrantCall",
      "type": "error"
    },
    {
      "anonymous": false,
      "inputs": [
        {
          "indexed": false,
          "internalType": "address",
          "name": "lendingPool",
          "type": "address"
        },
        {
          "indexed": false,
          "internalType": "address",
          "name": "aToken",
          "type": "address"
        }
      ],
      "name": "AaveContractsUpdated",
      "type": "event"
    },
    {
      "anonymous": false,
      "inputs": [
        {
          "indexed": true,
          "internalType": "address",
          "name": "contractAddress",
          "type": "address"
        }
      ],
      "name": "AuthorizedContractAdded",
      "type": "event"
    },
    {
      "anonymous": false,
      "inputs": [
        {
          "indexed": true,
          "internalType": "address",
          "name": "contractAddress",
          "type": "address"
        }
      ],
      "name": "AuthorizedContractRemoved",
      "type": "event"
    },
    {
      "anonymous": false,
      "inputs": [
        {
          "indexed": false,
          "internalType": "uint256",
          "name": "amount",
          "type": "uint256"
        },
        {
          "indexed": false,
          "internalType": "uint256",
          "name": "timestamp",
          "type": "uint256"
        }
      ],
      "name": "DepositedToAave",
      "type": "event"
    },
    {
      "anonymous": false,
      "inputs": [
        {
          "indexed": false,
          "internalType": "uint256",
          "name": "newInterest",
          "type": "uint256"
        },
        {
          "indexed": false,
          "internalType": "uint256",
          "name": "timestamp",
          "type": "uint256"
        }
      ],
      "name": "InterestUpdated",
      "type": "event"
    },
    {
      "anonymous": false,
      "inputs": [
        {
          "indexed": true,
          "internalType": "address",
          "name": "previousOwner",
          "type": "address"
        },
        {
          "indexed": true,
          "internalType": "address",
          "name": "newOwner",
          "type": "address"
        }
      ],
      "name": "OwnershipTransferred",
      "type": "event"
    },
    {
      "anonymous": false,
      "inputs": [
        {
          "indexed": false,
          "internalType": "address",
          "name": "account",
          "type": "address"
        }
      ],
      "name": "Paused",
      "type": "event"
    },
    {
      "anonymous": false,
      "inputs": [
        {
          "indexed": false,
          "internalType": "address",
          "name": "account",
          "type": "address"
        }
      ],
      "name": "Unpaused",
      "type": "event"
    },
    {
      "anonymous": false,
      "inputs": [
        {
          "indexed": false,
          "internalType": "uint256",
          "name": "amount",
          "type": "uint256"
        },
        {
          "indexed": false,
          "internalType": "uint256",
          "name": "timestamp",
          "type": "uint256"
        }
      ],
      "name": "WithdrawnFromAave",
      "type": "event"
    },
    {
      "inputs": [
        {
          "internalType": "address",
          "name": "contractAddress",
          "type": "address"
        }
      ],
      "name": "addAuthorizedContract",
      "outputs": [],
      "stateMutability": "nonpayable",
      "type": "function"
    },
    {
      "inputs": [
        {
          "internalType": "address",
          "name": "",
          "type": "address"
        }
      ],
      "name": "authorizedContracts",
      "outputs": [
        {
          "internalType": "bool",
          "name": "",
          "type": "bool"
        }
      ],
      "stateMutability": "view",
      "type": "function"
    },
    {
      "inputs": [
        {
          "internalType": "uint256",
          "name": "amount",
          "type": "uint256"
        }
      ],
      "name": "depositToAave",
      "outputs": [],
      "stateMutability": "payable",
      "type": "function"
    },
    {
      "inputs": [
        {
          "internalType": "uint256",
          "name": "amount",
          "type": "uint256"
        }
      ],
      "name": "emergencyWithdraw",
      "outputs": [],
      "stateMutability": "nonpayable",
      "type": "function"
    },
    {
      "inputs": [],
      "name": "getATokenBalance",
      "outputs": [
        {
          "internalType": "uint256",
          "name": "",
          "type": "uint256"
        }
      ],
      "stateMutability": "view",
      "type": "function"
    },
    {
      "inputs": [],
      "name": "getAavePosition",
      "outputs": [
        {
          "components": [
            {
              "internalType": "uint256",
              "name": "depositedAmount",
              "type": "uint256"
            },
            {
              "internalType": "uint256",
              "name": "aTokenBalance",
              "type": "uint256"
            },
            {
              "internalType": "uint256",
              "name": "accruedInterest",
              "type": "uint256"
            },
            {
              "internalType": "uint256",
              "name": "lastInterestUpdate",
              "type": "uint256"
            }
          ],
          "internalType": "struct AaveIntegration.AavePosition",
          "name": "",
          "type": "tuple"
        }
      ],
      "stateMutability": "view",
      "type": "function"
    },
    {
      "inputs": [],
      "name": "getAccruedInterest",
      "outputs": [
        {
          "internalType": "uint256",
          "name": "",
          "type": "uint256"
        }
      ],
      "stateMutability": "view",
      "type": "function"
    },
    {
      "inputs": [],
      "name": "getContractBalance",
      "outputs": [
        {
          "internalType": "uint256",
          "name": "",
          "type": "uint256"
        }
      ],
      "stateMutability": "view",
      "type": "function"
    },
    {
      "inputs": [],
      "name": "getTotalDeposited",
      "outputs": [
        {
          "internalType": "uint256",
          "name": "",
          "type": "uint256"
        }
      ],
      "stateMutability": "view",
      "type": "function"
    },
    {
      "inputs": [],
      "name": "lastInterestCalculation",
      "outputs": [
        {
          "internalType": "uint256",
          "name": "",
          "type": "uint256"
        }
      ],
      "stateMutability": "view",
      "type": "function"
    },
    {
      "inputs": [],
      "name": "mockAToken",
      "outputs": [
        {
          "internalType": "address",
          "name": "",
          "type": "address"
        }
      ],
      "stateMutability": "view",
      "type": "function"
    },
    {
      "inputs": [],
      "name": "mockLendingPool",
      "outputs": [
        {
          "internalType": "address",
          "name": "",
          "type": "address"
        }
      ],
      "stateMutability": "view",
      "type": "function"
    },
    {
      "inputs": [],
      "name": "owner",
      "outputs": [
        {
          "internalType": "address",
          "name": "",
          "type": "address"
        }
      ],
      "stateMutability": "view",
      "type": "function"
    },
    {
      "inputs": [],
      "name": "pause",
      "outputs": [],
      "stateMutability": "nonpayable",
      "type": "function"
    },
    {
      "inputs": [],
      "name": "paused",
      "outputs": [
        {
          "internalType": "bool",
          "name": "",
          "type": "bool"
        }
      ],
      "stateMutability": "view",
      "type": "function"
    },
    {
      "inputs": [
        {
          "internalType": "address",
          "name": "contractAddress",
          "type": "address"
        }
      ],
      "name": "removeAuthorizedContract",
      "outputs": [],
      "stateMutability": "nonpayable",
      "type": "function"
    },
    {
      "inputs": [],
      "name": "renounceOwnership",
      "outputs": [],
      "stateMutability": "nonpayable",
      "type": "function"
    },
    {
      "inputs": [
        {
          "internalType": "address",
          "name": "_lendingPool",
          "type": "address"
        },
        {
          "internalType": "address",
          "name": "_aToken",
          "type": "address"
        }
      ],
      "name": "setAaveContracts",
      "outputs": [],
      "stateMutability": "nonpayable",
      "type": "function"
    },
    {
      "inputs": [],
      "name": "totalDeposited",
      "outputs": [
        {
          "internalType": "uint256",
          "name": "",
          "type": "uint256"
        }
      ],
      "stateMutability": "view",
      "type": "function"
    },
    {
      "inputs": [],
      "name": "totalInterestEarned",
      "outputs": [
        {
          "internalType": "uint256",
          "name": "",
          "type": "uint256"
        }
      ],
      "stateMutability": "view",
      "type": "function"
    },
    {
      "inputs": [],
      "name": "totalPosition",
      "outputs": [
        {
          "internalType": "uint256",
          "name": "depositedAmount",
          "type": "uint256"
        },
        {
          "internalType": "uint256",
          "name": "aTokenBalance",
          "type": "uint256"
        },
        {
          "internalType": "uint256",
          "name": "accruedInterest",
          "type": "uint256"
        },
        {
          "internalType": "uint256",
          "name": "lastInterestUpdate",
          "type": "uint256"
        }
      ],
      "stateMutability": "view",
      "type": "function"
    },
    {
      "inputs": [
        {
          "internalType": "address",
          "name": "newOwner",
          "type": "address"
        }
      ],
      "name": "transferOwnership",
      "outputs": [],
      "stateMutability": "nonpayable",
      "type": "function"
    },
    {
      "inputs": [],
      "name": "unpause",
      "outputs": [],
      "stateMutability": "nonpayable",
      "type": "function"
    },
    {
      "inputs": [],
      "name": "updateInterest",
      "outputs": [],
      "stateMutability": "nonpayable",
      "type": "function"
    },
    {
      "inputs": [
        {
          "internalType": "uint256",
          "name": "amount",
          "type": "uint256"
        },
        {
          "internalType": "address payable",
          "name": "recipient",
          "type": "address"
        }
      ],
      "name": "withdrawForContract",
      "outputs": [],
      "stateMutability": "nonpayable",
      "type": "function"
    },
    {
      "inputs": [
        {
          "internalType": "uint256",
          "name": "amount",
          "type": "uint256"
        }
      ],
      "name": "withdrawFromAave",
      "outputs": [],
      "stateMutability": "nonpayable",
      "type": "function"
    },
    {
      "stateMutability": "payable",
      "type": "receive"
    }
  ],
  "bytecode": "0x608060405234801561001057600080fd5b506001600055338061003c57604051631e4fbdf760e01b81526000600482015260240160405180910390fd5b6100458161004f565b50426008556100a1565b600180546001600160a01b038381166001600160a01b0319831681179093556040519116919082907f8be0079c531659141344cd1fd0a4f28419497f9722a3daafe3b4186f6b6457e090600090a35050565b610f88806100b06000396000f3fe6080604052600436106101845760003560e01c806386f6a828116100d1578063d14827911161008a578063e8390f7711610064578063e8390f771461043a578063f2fde38b1461045a578063f9ec99ac1461047a578063ff50abdc146104c257600080fd5b8063d1482791146103d5578063d5b9221b146103ea578063e6b165ed1461041a57600080fd5b806386f6a828146103365780638da5cb5b1461034c57806398eaa4a71461036a578063a2b899441461038a578063b68ef559146103aa578063b7d93f34146103bf57600080fd5b80635c975abb1161013e5780636f9fb98a116101185780636f9fb98a146102d9578063715018a6146102ec5780638456cb591461030157806385c7803d1461031657600080fd5b80635c975abb1461027b578063688f237b146102a657806368fd2d80146102c657600080fd5b8062c2d143146101905780631354f095146101b457806317fbe354146101ec5780633f4ba83a1461022f5780635312ea8e14610246578063564afa3a1461026657600080fd5b3661018b57005b600080fd5b34801561019c57600080fd5b506003545b6040519081526020015b60405180910390f35b3480156101c057600080fd5b50600a546101d4906001600160a01b031681565b6040516001600160a01b0390911681526020016101ab565b3480156101f857600080fd5b5060025460035460045460055461020f9392919084565b6040805194855260208501939093529183015260608201526080016101ab565b34801561023b57600080fd5b506102446104d8565b005b34801561025257600080fd5b50610244610261366004610e2e565b6104ea565b34801561027257600080fd5b506101a161059c565b34801561028757600080fd5b50600154600160a01b900460ff165b60405190151581526020016101ab565b3480156102b257600080fd5b506102446102c1366004610e2e565b6105ab565b6102446102d4366004610e2e565b610711565b3480156102e557600080fd5b50476101a1565b3480156102f857600080fd5b506102446107e3565b34801561030d57600080fd5b506102446107f5565b34801561032257600080fd5b50610244610331366004610e5c565b610805565b34801561034257600080fd5b506101a160085481565b34801561035857600080fd5b506001546001600160a01b03166101d4565b34801561037657600080fd5b50610244610385366004610e95565b61087b565b34801561039657600080fd5b506102446103a5366004610eb2565b6108cf565b3480156103b657600080fd5b506002546101a1565b3480156103cb57600080fd5b506101a160075481565b3480156103e157600080fd5b50610244610a82565b3480156103f657600080fd5b50610296610405366004610e95565b60096020526000908152604090205460ff1681565b34801561042657600080fd5b50610244610435366004610e95565b610a8a565b34801561044657600080fd5b50600b546101d4906001600160a01b031681565b34801561046657600080fd5b50610244610475366004610e95565b610adb565b34801561048657600080fd5b5061048f610b1b565b6040516101ab91908151815260208083015190820152604080830151908201526060918201519181019190915260800190565b3480156104ce57600080fd5b506101a160065481565b6104e0610b81565b6104e8610bae565b565b6104f2610b81565b4781111561051357604051631e9acf1760e31b815260040160405180910390fd5b60006105276001546001600160a01b031690565b6001600160a01b03168260405160006040518083038185875af1925050503d8060008114610571576040519150601f19603f3d011682016040523d82523d6000602084013e610576565b606091505b50509050806105985760405163522cc4ff60e11b815260040160405180910390fd5b5050565b60006105a6610c03565b905090565b6105b3610c7a565b6105bb610ca4565b806000036105dc5760405163162908e360e11b815260040160405180910390fd5b6002548111156105ff57604051631e9acf1760e31b815260040160405180910390fd5b610607610ccf565b600061061282610d33565b905081600260000160008282546106299190610eed565b909155505060038054839190600090610643908490610eed565b92505081905550816006600082825461065c9190610eed565b9091555050604051600090339083908381818185875af1925050503d80600081146106a3576040519150601f19603f3d011682016040523d82523d6000602084013e6106a8565b606091505b50509050806106ca5760405163522cc4ff60e11b815260040160405180910390fd5b604080518381524260208201527f57501c8e2164a8e257532432c793d9ee7bb35236acd0592a0b029a7f80a2eb5e910160405180910390a1505061070e6001600055565b50565b610719610c7a565b610721610ca4565b80158061072e5750803414155b1561074c5760405163162908e360e11b815260040160405180910390fd5b610754610ccf565b80600260000160008282546107699190610f06565b909155505060038054829190600090610783908490610f06565b92505081905550806006600082825461079c9190610f06565b9091555050604080518281524260208201527fe584f4c1a2f1624163a9abc184bf4b7a205d05032204ef46f06c0b1f6d659b87910160405180910390a161070e6001600055565b6107eb610b81565b6104e86000610d6f565b6107fd610b81565b6104e8610dc1565b61080d610b81565b600a80546001600160a01b038481166001600160a01b03199283168117909355600b80549185169190921681179091556040805192835260208301919091527fbb02c1fb29c6d3498b164c5311f12499b840f5a88f09e28094a59db531e5d209910160405180910390a15050565b610883610b81565b6001600160a01b038116600081815260096020526040808220805460ff19166001179055517f351e40fe333cede9dd79a1ef4d16228b1702f272eb2c2166ec3c7ee6a9d4ce2c9190a250565b6108d7610c7a565b6108df610ca4565b3360009081526009602052604090205460ff1661090f5760405163522cc4ff60e11b815260040160405180910390fd5b816000036109305760405163162908e360e11b815260040160405180910390fd5b60025482111561095357604051631e9acf1760e31b815260040160405180910390fd5b61095b610ccf565b600061096683610d33565b9050826002600001600082825461097d9190610eed565b909155505060038054849190600090610997908490610eed565b9250508190555082600660008282546109b09190610eed565b90915550819050478111156109c25750475b8015610a3e576000836001600160a01b03168260405160006040518083038185875af1925050503d8060008114610a15576040519150601f19603f3d011682016040523d82523d6000602084013e610a1a565b606091505b5050905080610a3c5760405163522cc4ff60e11b815260040160405180910390fd5b505b604080518381524260208201527f57501c8e2164a8e257532432c793d9ee7bb35236acd0592a0b029a7f80a2eb5e910160405180910390a150506105986001600055565b6104e8610ccf565b610a92610b81565b6001600160a01b038116600081815260096020526040808220805460ff19169055517f98a35376356c1565159c1b44676fcfa951a2287e2a816e208cf92e7aeb585a4f9190a250565b610ae3610b81565b6001600160a01b038116610b1257604051631e4fbdf760e01b8152600060048201526024015b60405180910390fd5b61070e81610d6f565b610b466040518060800160405280600081526020016000815260200160008152602001600081525090565b6040805160808101825260025481526003546020820152600454918101919091526005546060820152610b77610c03565b6040820152919050565b6001546001600160a01b031633146104e85760405163118cdaa760e01b8152336004820152602401610b09565b610bb6610e04565b6001805460ff60a01b191690557f5db9ee0a495bf2e6ff9c91a7834c1ba4fdd244a5e8aa4e537bd38aeae4b073aa335b6040516001600160a01b03909116815260200160405180910390a1565b6002546000908103610c16575060045490565b600060085442610c269190610eed565b905060056301e133806000610c3c826064610f19565b6002548590610c4c908690610f19565b610c569190610f19565b610c609190610f30565b600454909150610c71908290610f06565b94505050505090565b600260005403610c9d57604051633ee5aeb560e01b815260040160405180910390fd5b6002600055565b600154600160a01b900460ff16156104e85760405163d93c066560e01b815260040160405180910390fd5b6000610cd9610c03565b6004819055426005819055600782905560088190556040519192507f46ba83b1bb5d30bf76865a9c4d50e868ef6092e32e9dbca33926fe6d81c1a12991610d2891848252602082015260400190565b60405180910390a150565b600254600090819015610d5e57600254600454610d51908590610f19565b610d5b9190610f30565b90505b610d688184610f06565b9392505050565b600180546001600160a01b038381166001600160a01b0319831681179093556040519116919082907f8be0079c531659141344cd1fd0a4f28419497f9722a3daafe3b4186f6b6457e090600090a35050565b610dc9610ca4565b6001805460ff60a01b1916600160a01b1790557f62e78cea01bee320cd4e420270b5ea74000d11b0c9f74754ebdbfc544b05a258610be63390565b600154600160a01b900460ff166104e857604051638dfc202b60e01b815260040160405180910390fd5b600060208284031215610e4057600080fd5b5035919050565b6001600160a01b038116811461070e57600080fd5b60008060408385031215610e6f57600080fd5b8235610e7a81610e47565b91506020830135610e8a81610e47565b809150509250929050565b600060208284031215610ea757600080fd5b8135610d6881610e47565b60008060408385031215610ec557600080fd5b823591506020830135610e8a81610e47565b634e487b7160e01b600052601160045260246000fd5b81810381811115610f0057610f00610ed7565b92915050565b80820180821115610f0057610f00610ed7565b8082028115828204841417610f0057610f00610ed7565b600082610f4d57634e487b7160e01b600052601260045260246000fd5b50049056fea2646970667358221220520df3985af8ab985248148feaa6ab4e41d31f4fac2d2eeb1d8b2038998646c264736f6c63430008140033",
  "linkReferences": {},
  "deployedLinkReferences": {}
}