{"contracts/AaveIntegration.sol":{"AaveIntegration":{"abi":[{"inputs":[],"stateMutability":"nonpayable","type":"constructor"},{"inputs":[],"name":"AaveOperationFailed","type":"error"},{"inputs":[],"name":"ContractNotSet","type":"error"},{"inputs":[],"name":"EnforcedPause","type":"error"},{"inputs":[],"name":"ExpectedPause","type":"error"},{"inputs":[],"name":"InsufficientBalance","type":"error"},{"inputs":[],"name":"InvalidAmount","type":"error"},{"inputs":[{"internalType":"address","name":"owner","type":"address"}],"name":"OwnableInvalidOwner","type":"error"},{"inputs":[{"internalType":"address","name":"account","type":"address"}],"name":"OwnableUnauthorizedAccount","type":"error"},{"inputs":[],"name":"ReentrancyGuardReentrantCall","type":"error"},{"anonymous":false,"inputs":[{"indexed":false,"internalType":"address","name":"lendingPool","type":"address"},{"indexed":false,"internalType":"address","name":"aToken","type":"address"}],"name":"AaveContractsUpdated","type":"event"},{"anonymous":false,"inputs":[{"indexed":true,"internalType":"address","name":"contractAddress","type":"address"}],"name":"AuthorizedContractAdded","type":"event"},{"anonymous":false,"inputs":[{"indexed":true,"internalType":"address","name":"contractAddress","type":"address"}],"name":"AuthorizedContractRemoved","type":"event"},{"anonymous":false,"inputs":[{"indexed":false,"internalType":"uint256","name":"amount","type":"uint256"},{"indexed":false,"internalType":"uint256","name":"timestamp","type":"uint256"}],"name":"DepositedToAave","type":"event"},{"anonymous":false,"inputs":[{"indexed":false,"internalType":"uint256","name":"newInterest","type":"uint256"},{"indexed":false,"internalType":"uint256","name":"timestamp","type":"uint256"}],"name":"InterestUpdated","type":"event"},{"anonymous":false,"inputs":[{"indexed":true,"internalType":"address","name":"previousOwner","type":"address"},{"indexed":true,"internalType":"address","name":"newOwner","type":"address"}],"name":"OwnershipTransferred","type":"event"},{"anonymous":false,"inputs":[{"indexed":false,"internalType":"address","name":"account","type":"address"}],"name":"Paused","type":"event"},{"anonymous":false,"inputs":[{"indexed":false,"internalType":"address","name":"account","type":"address"}],"name":"Unpaused","type":"event"},{"anonymous":false,"inputs":[{"indexed":false,"internalType":"uint256","name":"amount","type":"uint256"},{"indexed":false,"internalType":"uint256","name":"timestamp","type":"uint256"}],"name":"WithdrawnFromAave","type":"event"},{"inputs":[{"internalType":"address","name":"contractAddress","type":"address"}],"name":"addAuthorizedContract","outputs":[],"stateMutability":"nonpayable","type":"function"},{"inputs":[{"internalType":"address","name":"","type":"address"}],"name":"authorizedContracts","outputs":[{"internalType":"bool","name":"","type":"bool"}],"stateMutability":"view","type":"function"},{"inputs":[{"internalType":"uint256","name":"amount","type":"uint256"}],"name":"depositToAave","outputs":[],"stateMutability":"payable","type":"function"},{"inputs":[{"internalType":"uint256","name":"amount","type":"uint256"}],"name":"emergencyWithdraw","outputs":[],"stateMutability":"nonpayable","type":"function"},{"inputs":[],"name":"getATokenBalance","outputs":[{"internalType":"uint256","name":"","type":"uint256"}],"stateMutability":"view","type":"function"},{"inputs":[],"name":"getAavePosition","outputs":[{"components":[{"internalType":"uint256","name":"depositedAmount","type":"uint256"},{"internalType":"uint256","name":"aTokenBalance","type":"uint256"},{"internalType":"uint256","name":"accruedInterest","type":"uint256"},{"internalType":"uint256","name":"lastInterestUpdate","type":"uint256"}],"internalType":"struct AaveIntegration.AavePosition","name":"","type":"tuple"}],"stateMutability":"view","type":"function"},{"inputs":[],"name":"getAccruedInterest","outputs":[{"internalType":"uint256","name":"","type":"uint256"}],"stateMutability":"view","type":"function"},{"inputs":[],"name":"getContractBalance","outputs":[{"internalType":"uint256","name":"","type":"uint256"}],"stateMutability":"view","type":"function"},{"inputs":[],"name":"getTotalDeposited","outputs":[{"internalType":"uint256","name":"","type":"uint256"}],"stateMutability":"view","type":"function"},{"inputs":[],"name":"lastInterestCalculation","outputs":[{"internalType":"uint256","name":"","type":"uint256"}],"stateMutability":"view","type":"function"},{"inputs":[],"name":"mockAToken","outputs":[{"internalType":"address","name":"","type":"address"}],"stateMutability":"view","type":"function"},{"inputs":[],"name":"mockLendingPool","outputs":[{"internalType":"address","name":"","type":"address"}],"stateMutability":"view","type":"function"},{"inputs":[],"name":"owner","outputs":[{"internalType":"address","name":"","type":"address"}],"stateMutability":"view","type":"function"},{"inputs":[],"name":"pause","outputs":[],"stateMutability":"nonpayable","type":"function"},{"inputs":[],"name":"paused","outputs":[{"internalType":"bool","name":"","type":"bool"}],"stateMutability":"view","type":"function"},{"inputs":[{"internalType":"address","name":"contractAddress","type":"address"}],"name":"removeAuthorizedContract","outputs":[],"stateMutability":"nonpayable","type":"function"},{"inputs":[],"name":"renounceOwnership","outputs":[],"stateMutability":"nonpayable","type":"function"},{"inputs":[{"internalType":"address","name":"_lendingPool","type":"address"},{"internalType":"address","name":"_aToken","type":"address"}],"name":"setAaveContracts","outputs":[],"stateMutability":"nonpayable","type":"function"},{"inputs":[],"name":"totalDeposited","outputs":[{"internalType":"uint256","name":"","type":"uint256"}],"stateMutability":"view","type":"function"},{"inputs":[],"name":"totalInterestEarned","outputs":[{"internalType":"uint256","name":"","type":"uint256"}],"stateMutability":"view","type":"function"},{"inputs":[],"name":"totalPosition","outputs":[{"internalType":"uint256","name":"depositedAmount","type":"uint256"},{"internalType":"uint256","name":"aTokenBalance","type":"uint256"},{"internalType":"uint256","name":"accruedInterest","type":"uint256"},{"internalType":"uint256","name":"lastInterestUpdate","type":"uint256"}],"stateMutability":"view","type":"function"},{"inputs":[{"internalType":"address","name":"newOwner","type":"address"}],"name":"transferOwnership","outputs":[],"stateMutability":"nonpayable","type":"function"},{"inputs":[],"name":"unpause","outputs":[],"stateMutability":"nonpayable","type":"function"},{"inputs":[],"name":"updateInterest","outputs":[],"stateMutability":"nonpayable","type":"function"},{"inputs":[{"internalType":"uint256","name":"amount","type":"uint256"},{"internalType":"address payable","name":"recipient","type":"address"}],"name":"withdrawForContract","outputs":[],"stateMutability":"nonpayable","type":"function"},{"inputs":[{"internalType":"uint256","name":"amount","type":"uint256"}],"name":"withdrawFromAave","outputs":[],"stateMutability":"nonpayable","type":"function"},{"stateMutability":"payable","type":"receive"}],"evm":{"bytecode":{"linkReferences":{},"object":"608060405234801561001057600080fd5b506001600055338061003c57604051631e4fbdf760e01b81526000600482015260240160405180910390fd5b6100458161004f565b50426008556100a1565b600180546001600160a01b038381166001600160a01b0319831681179093556040519116919082907f8be0079c531659141344cd1fd0a4f28419497f9722a3daafe3b4186f6b6457e090600090a35050565b610f88806100b06000396000f3fe6080604052600436106101845760003560e01c806386f6a828116100d1578063d14827911161008a578063e8390f7711610064578063e8390f771461043a578063f2fde38b1461045a578063f9ec99ac1461047a578063ff50abdc146104c257600080fd5b8063d1482791146103d5578063d5b9221b146103ea578063e6b165ed1461041a57600080fd5b806386f6a828146103365780638da5cb5b1461034c57806398eaa4a71461036a578063a2b899441461038a578063b68ef559146103aa578063b7d93f34146103bf57600080fd5b80635c975abb1161013e5780636f9fb98a116101185780636f9fb98a146102d9578063715018a6146102ec5780638456cb591461030157806385c7803d1461031657600080fd5b80635c975abb1461027b578063688f237b146102a657806368fd2d80146102c657600080fd5b8062c2d143146101905780631354f095146101b457806317fbe354146101ec5780633f4ba83a1461022f5780635312ea8e14610246578063564afa3a1461026657600080fd5b3661018b57005b600080fd5b34801561019c57600080fd5b506003545b6040519081526020015b60405180910390f35b3480156101c057600080fd5b50600a546101d4906001600160a01b031681565b6040516001600160a01b0390911681526020016101ab565b3480156101f857600080fd5b5060025460035460045460055461020f9392919084565b6040805194855260208501939093529183015260608201526080016101ab565b34801561023b57600080fd5b506102446104d8565b005b34801561025257600080fd5b50610244610261366004610e2e565b6104ea565b34801561027257600080fd5b506101a161059c565b34801561028757600080fd5b50600154600160a01b900460ff165b60405190151581526020016101ab565b3480156102b257600080fd5b506102446102c1366004610e2e565b6105ab565b6102446102d4366004610e2e565b610711565b3480156102e557600080fd5b50476101a1565b3480156102f857600080fd5b506102446107e3565b34801561030d57600080fd5b506102446107f5565b34801561032257600080fd5b50610244610331366004610e5c565b610805565b34801561034257600080fd5b506101a160085481565b34801561035857600080fd5b506001546001600160a01b03166101d4565b34801561037657600080fd5b50610244610385366004610e95565b61087b565b34801561039657600080fd5b506102446103a5366004610eb2565b6108cf565b3480156103b657600080fd5b506002546101a1565b3480156103cb57600080fd5b506101a160075481565b3480156103e157600080fd5b50610244610a82565b3480156103f657600080fd5b50610296610405366004610e95565b60096020526000908152604090205460ff1681565b34801561042657600080fd5b50610244610435366004610e95565b610a8a565b34801561044657600080fd5b50600b546101d4906001600160a01b031681565b34801561046657600080fd5b50610244610475366004610e95565b610adb565b34801561048657600080fd5b5061048f610b1b565b6040516101ab91908151815260208083015190820152604080830151908201526060918201519181019190915260800190565b3480156104ce57600080fd5b506101a160065481565b6104e0610b81565b6104e8610bae565b565b6104f2610b81565b4781111561051357604051631e9acf1760e31b815260040160405180910390fd5b60006105276001546001600160a01b031690565b6001600160a01b03168260405160006040518083038185875af1925050503d8060008114610571576040519150601f19603f3d011682016040523d82523d6000602084013e610576565b606091505b50509050806105985760405163522cc4ff60e11b815260040160405180910390fd5b5050565b60006105a6610c03565b905090565b6105b3610c7a565b6105bb610ca4565b806000036105dc5760405163162908e360e11b815260040160405180910390fd5b6002548111156105ff57604051631e9acf1760e31b815260040160405180910390fd5b610607610ccf565b600061061282610d33565b905081600260000160008282546106299190610eed565b909155505060038054839190600090610643908490610eed565b92505081905550816006600082825461065c9190610eed565b9091555050604051600090339083908381818185875af1925050503d80600081146106a3576040519150601f19603f3d011682016040523d82523d6000602084013e6106a8565b606091505b50509050806106ca5760405163522cc4ff60e11b815260040160405180910390fd5b604080518381524260208201527f57501c8e2164a8e257532432c793d9ee7bb35236acd0592a0b029a7f80a2eb5e910160405180910390a1505061070e6001600055565b50565b610719610c7a565b610721610ca4565b80158061072e5750803414155b1561074c5760405163162908e360e11b815260040160405180910390fd5b610754610ccf565b80600260000160008282546107699190610f06565b909155505060038054829190600090610783908490610f06565b92505081905550806006600082825461079c9190610f06565b9091555050604080518281524260208201527fe584f4c1a2f1624163a9abc184bf4b7a205d05032204ef46f06c0b1f6d659b87910160405180910390a161070e6001600055565b6107eb610b81565b6104e86000610d6f565b6107fd610b81565b6104e8610dc1565b61080d610b81565b600a80546001600160a01b038481166001600160a01b03199283168117909355600b80549185169190921681179091556040805192835260208301919091527fbb02c1fb29c6d3498b164c5311f12499b840f5a88f09e28094a59db531e5d209910160405180910390a15050565b610883610b81565b6001600160a01b038116600081815260096020526040808220805460ff19166001179055517f351e40fe333cede9dd79a1ef4d16228b1702f272eb2c2166ec3c7ee6a9d4ce2c9190a250565b6108d7610c7a565b6108df610ca4565b3360009081526009602052604090205460ff1661090f5760405163522cc4ff60e11b815260040160405180910390fd5b816000036109305760405163162908e360e11b815260040160405180910390fd5b60025482111561095357604051631e9acf1760e31b815260040160405180910390fd5b61095b610ccf565b600061096683610d33565b9050826002600001600082825461097d9190610eed565b909155505060038054849190600090610997908490610eed565b9250508190555082600660008282546109b09190610eed565b90915550819050478111156109c25750475b8015610a3e576000836001600160a01b03168260405160006040518083038185875af1925050503d8060008114610a15576040519150601f19603f3d011682016040523d82523d6000602084013e610a1a565b606091505b5050905080610a3c5760405163522cc4ff60e11b815260040160405180910390fd5b505b604080518381524260208201527f57501c8e2164a8e257532432c793d9ee7bb35236acd0592a0b029a7f80a2eb5e910160405180910390a150506105986001600055565b6104e8610ccf565b610a92610b81565b6001600160a01b038116600081815260096020526040808220805460ff19169055517f98a35376356c1565159c1b44676fcfa951a2287e2a816e208cf92e7aeb585a4f9190a250565b610ae3610b81565b6001600160a01b038116610b1257604051631e4fbdf760e01b8152600060048201526024015b60405180910390fd5b61070e81610d6f565b610b466040518060800160405280600081526020016000815260200160008152602001600081525090565b6040805160808101825260025481526003546020820152600454918101919091526005546060820152610b77610c03565b6040820152919050565b6001546001600160a01b031633146104e85760405163118cdaa760e01b8152336004820152602401610b09565b610bb6610e04565b6001805460ff60a01b191690557f5db9ee0a495bf2e6ff9c91a7834c1ba4fdd244a5e8aa4e537bd38aeae4b073aa335b6040516001600160a01b03909116815260200160405180910390a1565b6002546000908103610c16575060045490565b600060085442610c269190610eed565b905060056301e133806000610c3c826064610f19565b6002548590610c4c908690610f19565b610c569190610f19565b610c609190610f30565b600454909150610c71908290610f06565b94505050505090565b600260005403610c9d57604051633ee5aeb560e01b815260040160405180910390fd5b6002600055565b600154600160a01b900460ff16156104e85760405163d93c066560e01b815260040160405180910390fd5b6000610cd9610c03565b6004819055426005819055600782905560088190556040519192507f46ba83b1bb5d30bf76865a9c4d50e868ef6092e32e9dbca33926fe6d81c1a12991610d2891848252602082015260400190565b60405180910390a150565b600254600090819015610d5e57600254600454610d51908590610f19565b610d5b9190610f30565b90505b610d688184610f06565b9392505050565b600180546001600160a01b038381166001600160a01b0319831681179093556040519116919082907f8be0079c531659141344cd1fd0a4f28419497f9722a3daafe3b4186f6b6457e090600090a35050565b610dc9610ca4565b6001805460ff60a01b1916600160a01b1790557f62e78cea01bee320cd4e420270b5ea74000d11b0c9f74754ebdbfc544b05a258610be63390565b600154600160a01b900460ff166104e857604051638dfc202b60e01b815260040160405180910390fd5b600060208284031215610e4057600080fd5b5035919050565b6001600160a01b038116811461070e57600080fd5b60008060408385031215610e6f57600080fd5b8235610e7a81610e47565b91506020830135610e8a81610e47565b809150509250929050565b600060208284031215610ea757600080fd5b8135610d6881610e47565b60008060408385031215610ec557600080fd5b823591506020830135610e8a81610e47565b634e487b7160e01b600052601160045260246000fd5b81810381811115610f0057610f00610ed7565b92915050565b80820180821115610f0057610f00610ed7565b8082028115828204841417610f0057610f00610ed7565b600082610f4d57634e487b7160e01b600052601260045260246000fd5b50049056fea2646970667358221220520df3985af8ab985248148feaa6ab4e41d31f4fac2d2eeb1d8b2038998646c264736f6c63430008140033","opcodes":"PUSH1 0x80 PUSH1 0x40 MSTORE CALLVALUE DUP1 ISZERO PUSH2 0x10 JUMPI PUSH1 0x0 DUP1 REVERT JUMPDEST POP PUSH1 0x1 PUSH1 0x0 SSTORE CALLER DUP1 PUSH2 0x3C JUMPI PUSH1 0x40 MLOAD PUSH4 0x1E4FBDF7 PUSH1 0xE0 SHL DUP2 MSTORE PUSH1 0x0 PUSH1 0x4 DUP3 ADD MSTORE PUSH1 0x24 ADD PUSH1 0x40 MLOAD DUP1 SWAP2 SUB SWAP1 REVERT JUMPDEST PUSH2 0x45 DUP2 PUSH2 0x4F JUMP JUMPDEST POP TIMESTAMP PUSH1 0x8 SSTORE PUSH2 0xA1 JUMP JUMPDEST PUSH1 0x1 DUP1 SLOAD PUSH1 0x1 PUSH1 0x1 PUSH1 0xA0 SHL SUB DUP4 DUP2 AND PUSH1 0x1 PUSH1 0x1 PUSH1 0xA0 SHL SUB NOT DUP4 AND DUP2 OR SWAP1 SWAP4 SSTORE PUSH1 0x40 MLOAD SWAP2 AND SWAP2 SWAP1 DUP3 SWAP1 PUSH32 0x8BE0079C531659141344CD1FD0A4F28419497F9722A3DAAFE3B4186F6B6457E0 SWAP1 PUSH1 0x0 SWAP1 LOG3 POP POP JUMP JUMPDEST PUSH2 0xF88 DUP1 PUSH2 0xB0 PUSH1 0x0 CODECOPY PUSH1 0x0 RETURN INVALID PUSH1 0x80 PUSH1 0x40 MSTORE PUSH1 0x4 CALLDATASIZE LT PUSH2 0x184 JUMPI PUSH1 0x0 CALLDATALOAD PUSH1 0xE0 SHR DUP1 PUSH4 0x86F6A828 GT PUSH2 0xD1 JUMPI DUP1 PUSH4 0xD1482791 GT PUSH2 0x8A JUMPI DUP1 PUSH4 0xE8390F77 GT PUSH2 0x64 JUMPI DUP1 PUSH4 0xE8390F77 EQ PUSH2 0x43A JUMPI DUP1 PUSH4 0xF2FDE38B EQ PUSH2 0x45A JUMPI DUP1 PUSH4 0xF9EC99AC EQ PUSH2 0x47A JUMPI DUP1 PUSH4 0xFF50ABDC EQ PUSH2 0x4C2 JUMPI PUSH1 0x0 DUP1 REVERT JUMPDEST DUP1 PUSH4 0xD1482791 EQ PUSH2 0x3D5 JUMPI DUP1 PUSH4 0xD5B9221B EQ PUSH2 0x3EA JUMPI DUP1 PUSH4 0xE6B165ED EQ PUSH2 0x41A JUMPI PUSH1 0x0 DUP1 REVERT JUMPDEST DUP1 PUSH4 0x86F6A828 EQ PUSH2 0x336 JUMPI DUP1 PUSH4 0x8DA5CB5B EQ PUSH2 0x34C JUMPI DUP1 PUSH4 0x98EAA4A7 EQ PUSH2 0x36A JUMPI DUP1 PUSH4 0xA2B89944 EQ PUSH2 0x38A JUMPI DUP1 PUSH4 0xB68EF559 EQ PUSH2 0x3AA JUMPI DUP1 PUSH4 0xB7D93F34 EQ PUSH2 0x3BF JUMPI PUSH1 0x0 DUP1 REVERT JUMPDEST DUP1 PUSH4 0x5C975ABB GT PUSH2 0x13E JUMPI DUP1 PUSH4 0x6F9FB98A GT PUSH2 0x118 JUMPI DUP1 PUSH4 0x6F9FB98A EQ PUSH2 0x2D9 JUMPI DUP1 PUSH4 0x715018A6 EQ PUSH2 0x2EC JUMPI DUP1 PUSH4 0x8456CB59 EQ PUSH2 0x301 JUMPI DUP1 PUSH4 0x85C7803D EQ PUSH2 0x316 JUMPI PUSH1 0x0 DUP1 REVERT JUMPDEST DUP1 PUSH4 0x5C975ABB EQ PUSH2 0x27B JUMPI DUP1 PUSH4 0x688F237B EQ PUSH2 0x2A6 JUMPI DUP1 PUSH4 0x68FD2D80 EQ PUSH2 0x2C6 JUMPI PUSH1 0x0 DUP1 REVERT JUMPDEST DUP1 PUSH3 0xC2D143 EQ PUSH2 0x190 JUMPI DUP1 PUSH4 0x1354F095 EQ PUSH2 0x1B4 JUMPI DUP1 PUSH4 0x17FBE354 EQ PUSH2 0x1EC JUMPI DUP1 PUSH4 0x3F4BA83A EQ PUSH2 0x22F JUMPI DUP1 PUSH4 0x5312EA8E EQ PUSH2 0x246 JUMPI DUP1 PUSH4 0x564AFA3A EQ PUSH2 0x266 JUMPI PUSH1 0x0 DUP1 REVERT JUMPDEST CALLDATASIZE PUSH2 0x18B JUMPI STOP JUMPDEST PUSH1 0x0 DUP1 REVERT JUMPDEST CALLVALUE DUP1 ISZERO PUSH2 0x19C JUMPI PUSH1 0x0 DUP1 REVERT JUMPDEST POP PUSH1 0x3 SLOAD JUMPDEST PUSH1 0x40 MLOAD SWAP1 DUP2 MSTORE PUSH1 0x20 ADD JUMPDEST PUSH1 0x40 MLOAD DUP1 SWAP2 SUB SWAP1 RETURN JUMPDEST CALLVALUE DUP1 ISZERO PUSH2 0x1C0 JUMPI PUSH1 0x0 DUP1 REVERT JUMPDEST POP PUSH1 0xA SLOAD PUSH2 0x1D4 SWAP1 PUSH1 0x1 PUSH1 0x1 PUSH1 0xA0 SHL SUB AND DUP2 JUMP JUMPDEST PUSH1 0x40 MLOAD PUSH1 0x1 PUSH1 0x1 PUSH1 0xA0 SHL SUB SWAP1 SWAP2 AND DUP2 MSTORE PUSH1 0x20 ADD PUSH2 0x1AB JUMP JUMPDEST CALLVALUE DUP1 ISZERO PUSH2 0x1F8 JUMPI PUSH1 0x0 DUP1 REVERT JUMPDEST POP PUSH1 0x2 SLOAD PUSH1 0x3 SLOAD PUSH1 0x4 SLOAD PUSH1 0x5 SLOAD PUSH2 0x20F SWAP4 SWAP3 SWAP2 SWAP1 DUP5 JUMP JUMPDEST PUSH1 0x40 DUP1 MLOAD SWAP5 DUP6 MSTORE PUSH1 0x20 DUP6 ADD SWAP4 SWAP1 SWAP4 MSTORE SWAP2 DUP4 ADD MSTORE PUSH1 0x60 DUP3 ADD MSTORE PUSH1 0x80 ADD PUSH2 0x1AB JUMP JUMPDEST CALLVALUE DUP1 ISZERO PUSH2 0x23B JUMPI PUSH1 0x0 DUP1 REVERT JUMPDEST POP PUSH2 0x244 PUSH2 0x4D8 JUMP JUMPDEST STOP JUMPDEST CALLVALUE DUP1 ISZERO PUSH2 0x252 JUMPI PUSH1 0x0 DUP1 REVERT JUMPDEST POP PUSH2 0x244 PUSH2 0x261 CALLDATASIZE PUSH1 0x4 PUSH2 0xE2E JUMP JUMPDEST PUSH2 0x4EA JUMP JUMPDEST CALLVALUE DUP1 ISZERO PUSH2 0x272 JUMPI PUSH1 0x0 DUP1 REVERT JUMPDEST POP PUSH2 0x1A1 PUSH2 0x59C JUMP JUMPDEST CALLVALUE DUP1 ISZERO PUSH2 0x287 JUMPI PUSH1 0x0 DUP1 REVERT JUMPDEST POP PUSH1 0x1 SLOAD PUSH1 0x1 PUSH1 0xA0 SHL SWAP1 DIV PUSH1 0xFF AND JUMPDEST PUSH1 0x40 MLOAD SWAP1 ISZERO ISZERO DUP2 MSTORE PUSH1 0x20 ADD PUSH2 0x1AB JUMP JUMPDEST CALLVALUE DUP1 ISZERO PUSH2 0x2B2 JUMPI PUSH1 0x0 DUP1 REVERT JUMPDEST POP PUSH2 0x244 PUSH2 0x2C1 CALLDATASIZE PUSH1 0x4 PUSH2 0xE2E JUMP JUMPDEST PUSH2 0x5AB JUMP JUMPDEST PUSH2 0x244 PUSH2 0x2D4 CALLDATASIZE PUSH1 0x4 PUSH2 0xE2E JUMP JUMPDEST PUSH2 0x711 JUMP JUMPDEST CALLVALUE DUP1 ISZERO PUSH2 0x2E5 JUMPI PUSH1 0x0 DUP1 REVERT JUMPDEST POP SELFBALANCE PUSH2 0x1A1 JUMP JUMPDEST CALLVALUE DUP1 ISZERO PUSH2 0x2F8 JUMPI PUSH1 0x0 DUP1 REVERT JUMPDEST POP PUSH2 0x244 PUSH2 0x7E3 JUMP JUMPDEST CALLVALUE DUP1 ISZERO PUSH2 0x30D JUMPI PUSH1 0x0 DUP1 REVERT JUMPDEST POP PUSH2 0x244 PUSH2 0x7F5 JUMP JUMPDEST CALLVALUE DUP1 ISZERO PUSH2 0x322 JUMPI PUSH1 0x0 DUP1 REVERT JUMPDEST POP PUSH2 0x244 PUSH2 0x331 CALLDATASIZE PUSH1 0x4 PUSH2 0xE5C JUMP JUMPDEST PUSH2 0x805 JUMP JUMPDEST CALLVALUE DUP1 ISZERO PUSH2 0x342 JUMPI PUSH1 0x0 DUP1 REVERT JUMPDEST POP PUSH2 0x1A1 PUSH1 0x8 SLOAD DUP2 JUMP JUMPDEST CALLVALUE DUP1 ISZERO PUSH2 0x358 JUMPI PUSH1 0x0 DUP1 REVERT JUMPDEST POP PUSH1 0x1 SLOAD PUSH1 0x1 PUSH1 0x1 PUSH1 0xA0 SHL SUB AND PUSH2 0x1D4 JUMP JUMPDEST CALLVALUE DUP1 ISZERO PUSH2 0x376 JUMPI PUSH1 0x0 DUP1 REVERT JUMPDEST POP PUSH2 0x244 PUSH2 0x385 CALLDATASIZE PUSH1 0x4 PUSH2 0xE95 JUMP JUMPDEST PUSH2 0x87B JUMP JUMPDEST CALLVALUE DUP1 ISZERO PUSH2 0x396 JUMPI PUSH1 0x0 DUP1 REVERT JUMPDEST POP PUSH2 0x244 PUSH2 0x3A5 CALLDATASIZE PUSH1 0x4 PUSH2 0xEB2 JUMP JUMPDEST PUSH2 0x8CF JUMP JUMPDEST CALLVALUE DUP1 ISZERO PUSH2 0x3B6 JUMPI PUSH1 0x0 DUP1 REVERT JUMPDEST POP PUSH1 0x2 SLOAD PUSH2 0x1A1 JUMP JUMPDEST CALLVALUE DUP1 ISZERO PUSH2 0x3CB JUMPI PUSH1 0x0 DUP1 REVERT JUMPDEST POP PUSH2 0x1A1 PUSH1 0x7 SLOAD DUP2 JUMP JUMPDEST CALLVALUE DUP1 ISZERO PUSH2 0x3E1 JUMPI PUSH1 0x0 DUP1 REVERT JUMPDEST POP PUSH2 0x244 PUSH2 0xA82 JUMP JUMPDEST CALLVALUE DUP1 ISZERO PUSH2 0x3F6 JUMPI PUSH1 0x0 DUP1 REVERT JUMPDEST POP PUSH2 0x296 PUSH2 0x405 CALLDATASIZE PUSH1 0x4 PUSH2 0xE95 JUMP JUMPDEST PUSH1 0x9 PUSH1 0x20 MSTORE PUSH1 0x0 SWAP1 DUP2 MSTORE PUSH1 0x40 SWAP1 KECCAK256 SLOAD PUSH1 0xFF AND DUP2 JUMP JUMPDEST CALLVALUE DUP1 ISZERO PUSH2 0x426 JUMPI PUSH1 0x0 DUP1 REVERT JUMPDEST POP PUSH2 0x244 PUSH2 0x435 CALLDATASIZE PUSH1 0x4 PUSH2 0xE95 JUMP JUMPDEST PUSH2 0xA8A JUMP JUMPDEST CALLVALUE DUP1 ISZERO PUSH2 0x446 JUMPI PUSH1 0x0 DUP1 REVERT JUMPDEST POP PUSH1 0xB SLOAD PUSH2 0x1D4 SWAP1 PUSH1 0x1 PUSH1 0x1 PUSH1 0xA0 SHL SUB AND DUP2 JUMP JUMPDEST CALLVALUE DUP1 ISZERO PUSH2 0x466 JUMPI PUSH1 0x0 DUP1 REVERT JUMPDEST POP PUSH2 0x244 PUSH2 0x475 CALLDATASIZE PUSH1 0x4 PUSH2 0xE95 JUMP JUMPDEST PUSH2 0xADB JUMP JUMPDEST CALLVALUE DUP1 ISZERO PUSH2 0x486 JUMPI PUSH1 0x0 DUP1 REVERT JUMPDEST POP PUSH2 0x48F PUSH2 0xB1B JUMP JUMPDEST PUSH1 0x40 MLOAD PUSH2 0x1AB SWAP2 SWAP1 DUP2 MLOAD DUP2 MSTORE PUSH1 0x20 DUP1 DUP4 ADD MLOAD SWAP1 DUP3 ADD MSTORE PUSH1 0x40 DUP1 DUP4 ADD MLOAD SWAP1 DUP3 ADD MSTORE PUSH1 0x60 SWAP2 DUP3 ADD MLOAD SWAP2 DUP2 ADD SWAP2 SWAP1 SWAP2 MSTORE PUSH1 0x80 ADD SWAP1 JUMP JUMPDEST CALLVALUE DUP1 ISZERO PUSH2 0x4CE JUMPI PUSH1 0x0 DUP1 REVERT JUMPDEST POP PUSH2 0x1A1 PUSH1 0x6 SLOAD DUP2 JUMP JUMPDEST PUSH2 0x4E0 PUSH2 0xB81 JUMP JUMPDEST PUSH2 0x4E8 PUSH2 0xBAE JUMP JUMPDEST JUMP JUMPDEST PUSH2 0x4F2 PUSH2 0xB81 JUMP JUMPDEST SELFBALANCE DUP2 GT ISZERO PUSH2 0x513 JUMPI PUSH1 0x40 MLOAD PUSH4 0x1E9ACF17 PUSH1 0xE3 SHL DUP2 MSTORE PUSH1 0x4 ADD PUSH1 0x40 MLOAD DUP1 SWAP2 SUB SWAP1 REVERT JUMPDEST PUSH1 0x0 PUSH2 0x527 PUSH1 0x1 SLOAD PUSH1 0x1 PUSH1 0x1 PUSH1 0xA0 SHL SUB AND SWAP1 JUMP JUMPDEST PUSH1 0x1 PUSH1 0x1 PUSH1 0xA0 SHL SUB AND DUP3 PUSH1 0x40 MLOAD PUSH1 0x0 PUSH1 0x40 MLOAD DUP1 DUP4 SUB DUP2 DUP6 DUP8 GAS CALL SWAP3 POP POP POP RETURNDATASIZE DUP1 PUSH1 0x0 DUP2 EQ PUSH2 0x571 JUMPI PUSH1 0x40 MLOAD SWAP2 POP PUSH1 0x1F NOT PUSH1 0x3F RETURNDATASIZE ADD AND DUP3 ADD PUSH1 0x40 MSTORE RETURNDATASIZE DUP3 MSTORE RETURNDATASIZE PUSH1 0x0 PUSH1 0x20 DUP5 ADD RETURNDATACOPY PUSH2 0x576 JUMP JUMPDEST PUSH1 0x60 SWAP2 POP JUMPDEST POP POP SWAP1 POP DUP1 PUSH2 0x598 JUMPI PUSH1 0x40 MLOAD PUSH4 0x522CC4FF PUSH1 0xE1 SHL DUP2 MSTORE PUSH1 0x4 ADD PUSH1 0x40 MLOAD DUP1 SWAP2 SUB SWAP1 REVERT JUMPDEST POP POP JUMP JUMPDEST PUSH1 0x0 PUSH2 0x5A6 PUSH2 0xC03 JUMP JUMPDEST SWAP1 POP SWAP1 JUMP JUMPDEST PUSH2 0x5B3 PUSH2 0xC7A JUMP JUMPDEST PUSH2 0x5BB PUSH2 0xCA4 JUMP JUMPDEST DUP1 PUSH1 0x0 SUB PUSH2 0x5DC JUMPI PUSH1 0x40 MLOAD PUSH4 0x162908E3 PUSH1 0xE1 SHL DUP2 MSTORE PUSH1 0x4 ADD PUSH1 0x40 MLOAD DUP1 SWAP2 SUB SWAP1 REVERT JUMPDEST PUSH1 0x2 SLOAD DUP2 GT ISZERO PUSH2 0x5FF JUMPI PUSH1 0x40 MLOAD PUSH4 0x1E9ACF17 PUSH1 0xE3 SHL DUP2 MSTORE PUSH1 0x4 ADD PUSH1 0x40 MLOAD DUP1 SWAP2 SUB SWAP1 REVERT JUMPDEST PUSH2 0x607 PUSH2 0xCCF JUMP JUMPDEST PUSH1 0x0 PUSH2 0x612 DUP3 PUSH2 0xD33 JUMP JUMPDEST SWAP1 POP DUP2 PUSH1 0x2 PUSH1 0x0 ADD PUSH1 0x0 DUP3 DUP3 SLOAD PUSH2 0x629 SWAP2 SWAP1 PUSH2 0xEED JUMP JUMPDEST SWAP1 SWAP2 SSTORE POP POP PUSH1 0x3 DUP1 SLOAD DUP4 SWAP2 SWAP1 PUSH1 0x0 SWAP1 PUSH2 0x643 SWAP1 DUP5 SWAP1 PUSH2 0xEED JUMP JUMPDEST SWAP3 POP POP DUP2 SWAP1 SSTORE POP DUP2 PUSH1 0x6 PUSH1 0x0 DUP3 DUP3 SLOAD PUSH2 0x65C SWAP2 SWAP1 PUSH2 0xEED JUMP JUMPDEST SWAP1 SWAP2 SSTORE POP POP PUSH1 0x40 MLOAD PUSH1 0x0 SWAP1 CALLER SWAP1 DUP4 SWAP1 DUP4 DUP2 DUP2 DUP2 DUP6 DUP8 GAS CALL SWAP3 POP POP POP RETURNDATASIZE DUP1 PUSH1 0x0 DUP2 EQ PUSH2 0x6A3 JUMPI PUSH1 0x40 MLOAD SWAP2 POP PUSH1 0x1F NOT PUSH1 0x3F RETURNDATASIZE ADD AND DUP3 ADD PUSH1 0x40 MSTORE RETURNDATASIZE DUP3 MSTORE RETURNDATASIZE PUSH1 0x0 PUSH1 0x20 DUP5 ADD RETURNDATACOPY PUSH2 0x6A8 JUMP JUMPDEST PUSH1 0x60 SWAP2 POP JUMPDEST POP POP SWAP1 POP DUP1 PUSH2 0x6CA JUMPI PUSH1 0x40 MLOAD PUSH4 0x522CC4FF PUSH1 0xE1 SHL DUP2 MSTORE PUSH1 0x4 ADD PUSH1 0x40 MLOAD DUP1 SWAP2 SUB SWAP1 REVERT JUMPDEST PUSH1 0x40 DUP1 MLOAD DUP4 DUP2 MSTORE TIMESTAMP PUSH1 0x20 DUP3 ADD MSTORE PUSH32 0x57501C8E2164A8E257532432C793D9EE7BB35236ACD0592A0B029A7F80A2EB5E SWAP2 ADD PUSH1 0x40 MLOAD DUP1 SWAP2 SUB SWAP1 LOG1 POP POP PUSH2 0x70E PUSH1 0x1 PUSH1 0x0 SSTORE JUMP JUMPDEST POP JUMP JUMPDEST PUSH2 0x719 PUSH2 0xC7A JUMP JUMPDEST PUSH2 0x721 PUSH2 0xCA4 JUMP JUMPDEST DUP1 ISZERO DUP1 PUSH2 0x72E JUMPI POP DUP1 CALLVALUE EQ ISZERO JUMPDEST ISZERO PUSH2 0x74C JUMPI PUSH1 0x40 MLOAD PUSH4 0x162908E3 PUSH1 0xE1 SHL DUP2 MSTORE PUSH1 0x4 ADD PUSH1 0x40 MLOAD DUP1 SWAP2 SUB SWAP1 REVERT JUMPDEST PUSH2 0x754 PUSH2 0xCCF JUMP JUMPDEST DUP1 PUSH1 0x2 PUSH1 0x0 ADD PUSH1 0x0 DUP3 DUP3 SLOAD PUSH2 0x769 SWAP2 SWAP1 PUSH2 0xF06 JUMP JUMPDEST SWAP1 SWAP2 SSTORE POP POP PUSH1 0x3 DUP1 SLOAD DUP3 SWAP2 SWAP1 PUSH1 0x0 SWAP1 PUSH2 0x783 SWAP1 DUP5 SWAP1 PUSH2 0xF06 JUMP JUMPDEST SWAP3 POP POP DUP2 SWAP1 SSTORE POP DUP1 PUSH1 0x6 PUSH1 0x0 DUP3 DUP3 SLOAD PUSH2 0x79C SWAP2 SWAP1 PUSH2 0xF06 JUMP JUMPDEST SWAP1 SWAP2 SSTORE POP POP PUSH1 0x40 DUP1 MLOAD DUP3 DUP2 MSTORE TIMESTAMP PUSH1 0x20 DUP3 ADD MSTORE PUSH32 0xE584F4C1A2F1624163A9ABC184BF4B7A205D05032204EF46F06C0B1F6D659B87 SWAP2 ADD PUSH1 0x40 MLOAD DUP1 SWAP2 SUB SWAP1 LOG1 PUSH2 0x70E PUSH1 0x1 PUSH1 0x0 SSTORE JUMP JUMPDEST PUSH2 0x7EB PUSH2 0xB81 JUMP JUMPDEST PUSH2 0x4E8 PUSH1 0x0 PUSH2 0xD6F JUMP JUMPDEST PUSH2 0x7FD PUSH2 0xB81 JUMP JUMPDEST PUSH2 0x4E8 PUSH2 0xDC1 JUMP JUMPDEST PUSH2 0x80D PUSH2 0xB81 JUMP JUMPDEST PUSH1 0xA DUP1 SLOAD PUSH1 0x1 PUSH1 0x1 PUSH1 0xA0 SHL SUB DUP5 DUP2 AND PUSH1 0x1 PUSH1 0x1 PUSH1 0xA0 SHL SUB NOT SWAP3 DUP4 AND DUP2 OR SWAP1 SWAP4 SSTORE PUSH1 0xB DUP1 SLOAD SWAP2 DUP6 AND SWAP2 SWAP1 SWAP3 AND DUP2 OR SWAP1 SWAP2 SSTORE PUSH1 0x40 DUP1 MLOAD SWAP3 DUP4 MSTORE PUSH1 0x20 DUP4 ADD SWAP2 SWAP1 SWAP2 MSTORE PUSH32 0xBB02C1FB29C6D3498B164C5311F12499B840F5A88F09E28094A59DB531E5D209 SWAP2 ADD PUSH1 0x40 MLOAD DUP1 SWAP2 SUB SWAP1 LOG1 POP POP JUMP JUMPDEST PUSH2 0x883 PUSH2 0xB81 JUMP JUMPDEST PUSH1 0x1 PUSH1 0x1 PUSH1 0xA0 SHL SUB DUP2 AND PUSH1 0x0 DUP2 DUP2 MSTORE PUSH1 0x9 PUSH1 0x20 MSTORE PUSH1 0x40 DUP1 DUP3 KECCAK256 DUP1 SLOAD PUSH1 0xFF NOT AND PUSH1 0x1 OR SWAP1 SSTORE MLOAD PUSH32 0x351E40FE333CEDE9DD79A1EF4D16228B1702F272EB2C2166EC3C7EE6A9D4CE2C SWAP2 SWAP1 LOG2 POP JUMP JUMPDEST PUSH2 0x8D7 PUSH2 0xC7A JUMP JUMPDEST PUSH2 0x8DF PUSH2 0xCA4 JUMP JUMPDEST CALLER PUSH1 0x0 SWAP1 DUP2 MSTORE PUSH1 0x9 PUSH1 0x20 MSTORE PUSH1 0x40 SWAP1 KECCAK256 SLOAD PUSH1 0xFF AND PUSH2 0x90F JUMPI PUSH1 0x40 MLOAD PUSH4 0x522CC4FF PUSH1 0xE1 SHL DUP2 MSTORE PUSH1 0x4 ADD PUSH1 0x40 MLOAD DUP1 SWAP2 SUB SWAP1 REVERT JUMPDEST DUP2 PUSH1 0x0 SUB PUSH2 0x930 JUMPI PUSH1 0x40 MLOAD PUSH4 0x162908E3 PUSH1 0xE1 SHL DUP2 MSTORE PUSH1 0x4 ADD PUSH1 0x40 MLOAD DUP1 SWAP2 SUB SWAP1 REVERT JUMPDEST PUSH1 0x2 SLOAD DUP3 GT ISZERO PUSH2 0x953 JUMPI PUSH1 0x40 MLOAD PUSH4 0x1E9ACF17 PUSH1 0xE3 SHL DUP2 MSTORE PUSH1 0x4 ADD PUSH1 0x40 MLOAD DUP1 SWAP2 SUB SWAP1 REVERT JUMPDEST PUSH2 0x95B PUSH2 0xCCF JUMP JUMPDEST PUSH1 0x0 PUSH2 0x966 DUP4 PUSH2 0xD33 JUMP JUMPDEST SWAP1 POP DUP3 PUSH1 0x2 PUSH1 0x0 ADD PUSH1 0x0 DUP3 DUP3 SLOAD PUSH2 0x97D SWAP2 SWAP1 PUSH2 0xEED JUMP JUMPDEST SWAP1 SWAP2 SSTORE POP POP PUSH1 0x3 DUP1 SLOAD DUP5 SWAP2 SWAP1 PUSH1 0x0 SWAP1 PUSH2 0x997 SWAP1 DUP5 SWAP1 PUSH2 0xEED JUMP JUMPDEST SWAP3 POP POP DUP2 SWAP1 SSTORE POP DUP3 PUSH1 0x6 PUSH1 0x0 DUP3 DUP3 SLOAD PUSH2 0x9B0 SWAP2 SWAP1 PUSH2 0xEED JUMP JUMPDEST SWAP1 SWAP2 SSTORE POP DUP2 SWAP1 POP SELFBALANCE DUP2 GT ISZERO PUSH2 0x9C2 JUMPI POP SELFBALANCE JUMPDEST DUP1 ISZERO PUSH2 0xA3E JUMPI PUSH1 0x0 DUP4 PUSH1 0x1 PUSH1 0x1 PUSH1 0xA0 SHL SUB AND DUP3 PUSH1 0x40 MLOAD PUSH1 0x0 PUSH1 0x40 MLOAD DUP1 DUP4 SUB DUP2 DUP6 DUP8 GAS CALL SWAP3 POP POP POP RETURNDATASIZE DUP1 PUSH1 0x0 DUP2 EQ PUSH2 0xA15 JUMPI PUSH1 0x40 MLOAD SWAP2 POP PUSH1 0x1F NOT PUSH1 0x3F RETURNDATASIZE ADD AND DUP3 ADD PUSH1 0x40 MSTORE RETURNDATASIZE DUP3 MSTORE RETURNDATASIZE PUSH1 0x0 PUSH1 0x20 DUP5 ADD RETURNDATACOPY PUSH2 0xA1A JUMP JUMPDEST PUSH1 0x60 SWAP2 POP JUMPDEST POP POP SWAP1 POP DUP1 PUSH2 0xA3C JUMPI PUSH1 0x40 MLOAD PUSH4 0x522CC4FF PUSH1 0xE1 SHL DUP2 MSTORE PUSH1 0x4 ADD PUSH1 0x40 MLOAD DUP1 SWAP2 SUB SWAP1 REVERT JUMPDEST POP JUMPDEST PUSH1 0x40 DUP1 MLOAD DUP4 DUP2 MSTORE TIMESTAMP PUSH1 0x20 DUP3 ADD MSTORE PUSH32 0x57501C8E2164A8E257532432C793D9EE7BB35236ACD0592A0B029A7F80A2EB5E SWAP2 ADD PUSH1 0x40 MLOAD DUP1 SWAP2 SUB SWAP1 LOG1 POP POP PUSH2 0x598 PUSH1 0x1 PUSH1 0x0 SSTORE JUMP JUMPDEST PUSH2 0x4E8 PUSH2 0xCCF JUMP JUMPDEST PUSH2 0xA92 PUSH2 0xB81 JUMP JUMPDEST PUSH1 0x1 PUSH1 0x1 PUSH1 0xA0 SHL SUB DUP2 AND PUSH1 0x0 DUP2 DUP2 MSTORE PUSH1 0x9 PUSH1 0x20 MSTORE PUSH1 0x40 DUP1 DUP3 KECCAK256 DUP1 SLOAD PUSH1 0xFF NOT AND SWAP1 SSTORE MLOAD PUSH32 0x98A35376356C1565159C1B44676FCFA951A2287E2A816E208CF92E7AEB585A4F SWAP2 SWAP1 LOG2 POP JUMP JUMPDEST PUSH2 0xAE3 PUSH2 0xB81 JUMP JUMPDEST PUSH1 0x1 PUSH1 0x1 PUSH1 0xA0 SHL SUB DUP2 AND PUSH2 0xB12 JUMPI PUSH1 0x40 MLOAD PUSH4 0x1E4FBDF7 PUSH1 0xE0 SHL DUP2 MSTORE PUSH1 0x0 PUSH1 0x4 DUP3 ADD MSTORE PUSH1 0x24 ADD JUMPDEST PUSH1 0x40 MLOAD DUP1 SWAP2 SUB SWAP1 REVERT JUMPDEST PUSH2 0x70E DUP2 PUSH2 0xD6F JUMP JUMPDEST PUSH2 0xB46 PUSH1 0x40 MLOAD DUP1 PUSH1 0x80 ADD PUSH1 0x40 MSTORE DUP1 PUSH1 0x0 DUP2 MSTORE PUSH1 0x20 ADD PUSH1 0x0 DUP2 MSTORE PUSH1 0x20 ADD PUSH1 0x0 DUP2 MSTORE PUSH1 0x20 ADD PUSH1 0x0 DUP2 MSTORE POP SWAP1 JUMP JUMPDEST PUSH1 0x40 DUP1 MLOAD PUSH1 0x80 DUP2 ADD DUP3 MSTORE PUSH1 0x2 SLOAD DUP2 MSTORE PUSH1 0x3 SLOAD PUSH1 0x20 DUP3 ADD MSTORE PUSH1 0x4 SLOAD SWAP2 DUP2 ADD SWAP2 SWAP1 SWAP2 MSTORE PUSH1 0x5 SLOAD PUSH1 0x60 DUP3 ADD MSTORE PUSH2 0xB77 PUSH2 0xC03 JUMP JUMPDEST PUSH1 0x40 DUP3 ADD MSTORE SWAP2 SWAP1 POP JUMP JUMPDEST PUSH1 0x1 SLOAD PUSH1 0x1 PUSH1 0x1 PUSH1 0xA0 SHL SUB AND CALLER EQ PUSH2 0x4E8 JUMPI PUSH1 0x40 MLOAD PUSH4 0x118CDAA7 PUSH1 0xE0 SHL DUP2 MSTORE CALLER PUSH1 0x4 DUP3 ADD MSTORE PUSH1 0x24 ADD PUSH2 0xB09 JUMP JUMPDEST PUSH2 0xBB6 PUSH2 0xE04 JUMP JUMPDEST PUSH1 0x1 DUP1 SLOAD PUSH1 0xFF PUSH1 0xA0 SHL NOT AND SWAP1 SSTORE PUSH32 0x5DB9EE0A495BF2E6FF9C91A7834C1BA4FDD244A5E8AA4E537BD38AEAE4B073AA CALLER JUMPDEST PUSH1 0x40 MLOAD PUSH1 0x1 PUSH1 0x1 PUSH1 0xA0 SHL SUB SWAP1 SWAP2 AND DUP2 MSTORE PUSH1 0x20 ADD PUSH1 0x40 MLOAD DUP1 SWAP2 SUB SWAP1 LOG1 JUMP JUMPDEST PUSH1 0x2 SLOAD PUSH1 0x0 SWAP1 DUP2 SUB PUSH2 0xC16 JUMPI POP PUSH1 0x4 SLOAD SWAP1 JUMP JUMPDEST PUSH1 0x0 PUSH1 0x8 SLOAD TIMESTAMP PUSH2 0xC26 SWAP2 SWAP1 PUSH2 0xEED JUMP JUMPDEST SWAP1 POP PUSH1 0x5 PUSH4 0x1E13380 PUSH1 0x0 PUSH2 0xC3C DUP3 PUSH1 0x64 PUSH2 0xF19 JUMP JUMPDEST PUSH1 0x2 SLOAD DUP6 SWAP1 PUSH2 0xC4C SWAP1 DUP7 SWAP1 PUSH2 0xF19 JUMP JUMPDEST PUSH2 0xC56 SWAP2 SWAP1 PUSH2 0xF19 JUMP JUMPDEST PUSH2 0xC60 SWAP2 SWAP1 PUSH2 0xF30 JUMP JUMPDEST PUSH1 0x4 SLOAD SWAP1 SWAP2 POP PUSH2 0xC71 SWAP1 DUP3 SWAP1 PUSH2 0xF06 JUMP JUMPDEST SWAP5 POP POP POP POP POP SWAP1 JUMP JUMPDEST PUSH1 0x2 PUSH1 0x0 SLOAD SUB PUSH2 0xC9D JUMPI PUSH1 0x40 MLOAD PUSH4 0x3EE5AEB5 PUSH1 0xE0 SHL DUP2 MSTORE PUSH1 0x4 ADD PUSH1 0x40 MLOAD DUP1 SWAP2 SUB SWAP1 REVERT JUMPDEST PUSH1 0x2 PUSH1 0x0 SSTORE JUMP JUMPDEST PUSH1 0x1 SLOAD PUSH1 0x1 PUSH1 0xA0 SHL SWAP1 DIV PUSH1 0xFF AND ISZERO PUSH2 0x4E8 JUMPI PUSH1 0x40 MLOAD PUSH4 0xD93C0665 PUSH1 0xE0 SHL DUP2 MSTORE PUSH1 0x4 ADD PUSH1 0x40 MLOAD DUP1 SWAP2 SUB SWAP1 REVERT JUMPDEST PUSH1 0x0 PUSH2 0xCD9 PUSH2 0xC03 JUMP JUMPDEST PUSH1 0x4 DUP2 SWAP1 SSTORE TIMESTAMP PUSH1 0x5 DUP2 SWAP1 SSTORE PUSH1 0x7 DUP3 SWAP1 SSTORE PUSH1 0x8 DUP2 SWAP1 SSTORE PUSH1 0x40 MLOAD SWAP2 SWAP3 POP PUSH32 0x46BA83B1BB5D30BF76865A9C4D50E868EF6092E32E9DBCA33926FE6D81C1A129 SWAP2 PUSH2 0xD28 SWAP2 DUP5 DUP3 MSTORE PUSH1 0x20 DUP3 ADD MSTORE PUSH1 0x40 ADD SWAP1 JUMP JUMPDEST PUSH1 0x40 MLOAD DUP1 SWAP2 SUB SWAP1 LOG1 POP JUMP JUMPDEST PUSH1 0x2 SLOAD PUSH1 0x0 SWAP1 DUP2 SWAP1 ISZERO PUSH2 0xD5E JUMPI PUSH1 0x2 SLOAD PUSH1 0x4 SLOAD PUSH2 0xD51 SWAP1 DUP6 SWAP1 PUSH2 0xF19 JUMP JUMPDEST PUSH2 0xD5B SWAP2 SWAP1 PUSH2 0xF30 JUMP JUMPDEST SWAP1 POP JUMPDEST PUSH2 0xD68 DUP2 DUP5 PUSH2 0xF06 JUMP JUMPDEST SWAP4 SWAP3 POP POP POP JUMP JUMPDEST PUSH1 0x1 DUP1 SLOAD PUSH1 0x1 PUSH1 0x1 PUSH1 0xA0 SHL SUB DUP4 DUP2 AND PUSH1 0x1 PUSH1 0x1 PUSH1 0xA0 SHL SUB NOT DUP4 AND DUP2 OR SWAP1 SWAP4 SSTORE PUSH1 0x40 MLOAD SWAP2 AND SWAP2 SWAP1 DUP3 SWAP1 PUSH32 0x8BE0079C531659141344CD1FD0A4F28419497F9722A3DAAFE3B4186F6B6457E0 SWAP1 PUSH1 0x0 SWAP1 LOG3 POP POP JUMP JUMPDEST PUSH2 0xDC9 PUSH2 0xCA4 JUMP JUMPDEST PUSH1 0x1 DUP1 SLOAD PUSH1 0xFF PUSH1 0xA0 SHL NOT AND PUSH1 0x1 PUSH1 0xA0 SHL OR SWAP1 SSTORE PUSH32 0x62E78CEA01BEE320CD4E420270B5EA74000D11B0C9F74754EBDBFC544B05A258 PUSH2 0xBE6 CALLER SWAP1 JUMP JUMPDEST PUSH1 0x1 SLOAD PUSH1 0x1 PUSH1 0xA0 SHL SWAP1 DIV PUSH1 0xFF AND PUSH2 0x4E8 JUMPI PUSH1 0x40 MLOAD PUSH4 0x8DFC202B PUSH1 0xE0 SHL DUP2 MSTORE PUSH1 0x4 ADD PUSH1 0x40 MLOAD DUP1 SWAP2 SUB SWAP1 REVERT JUMPDEST PUSH1 0x0 PUSH1 0x20 DUP3 DUP5 SUB SLT ISZERO PUSH2 0xE40 JUMPI PUSH1 0x0 DUP1 REVERT JUMPDEST POP CALLDATALOAD SWAP2 SWAP1 POP JUMP JUMPDEST PUSH1 0x1 PUSH1 0x1 PUSH1 0xA0 SHL SUB DUP2 AND DUP2 EQ PUSH2 0x70E JUMPI PUSH1 0x0 DUP1 REVERT JUMPDEST PUSH1 0x0 DUP1 PUSH1 0x40 DUP4 DUP6 SUB SLT ISZERO PUSH2 0xE6F JUMPI PUSH1 0x0 DUP1 REVERT JUMPDEST DUP3 CALLDATALOAD PUSH2 0xE7A DUP2 PUSH2 0xE47 JUMP JUMPDEST SWAP2 POP PUSH1 0x20 DUP4 ADD CALLDATALOAD PUSH2 0xE8A DUP2 PUSH2 0xE47 JUMP JUMPDEST DUP1 SWAP2 POP POP SWAP3 POP SWAP3 SWAP1 POP JUMP JUMPDEST PUSH1 0x0 PUSH1 0x20 DUP3 DUP5 SUB SLT ISZERO PUSH2 0xEA7 JUMPI PUSH1 0x0 DUP1 REVERT JUMPDEST DUP2 CALLDATALOAD PUSH2 0xD68 DUP2 PUSH2 0xE47 JUMP JUMPDEST PUSH1 0x0 DUP1 PUSH1 0x40 DUP4 DUP6 SUB SLT ISZERO PUSH2 0xEC5 JUMPI PUSH1 0x0 DUP1 REVERT JUMPDEST DUP3 CALLDATALOAD SWAP2 POP PUSH1 0x20 DUP4 ADD CALLDATALOAD PUSH2 0xE8A DUP2 PUSH2 0xE47 JUMP JUMPDEST PUSH4 0x4E487B71 PUSH1 0xE0 SHL PUSH1 0x0 MSTORE PUSH1 0x11 PUSH1 0x4 MSTORE PUSH1 0x24 PUSH1 0x0 REVERT JUMPDEST DUP2 DUP2 SUB DUP2 DUP2 GT ISZERO PUSH2 0xF00 JUMPI PUSH2 0xF00 PUSH2 0xED7 JUMP JUMPDEST SWAP3 SWAP2 POP POP JUMP JUMPDEST DUP1 DUP3 ADD DUP1 DUP3 GT ISZERO PUSH2 0xF00 JUMPI PUSH2 0xF00 PUSH2 0xED7 JUMP JUMPDEST DUP1 DUP3 MUL DUP2 ISZERO DUP3 DUP3 DIV DUP5 EQ OR PUSH2 0xF00 JUMPI PUSH2 0xF00 PUSH2 0xED7 JUMP JUMPDEST PUSH1 0x0 DUP3 PUSH2 0xF4D JUMPI PUSH4 0x4E487B71 PUSH1 0xE0 SHL PUSH1 0x0 MSTORE PUSH1 0x12 PUSH1 0x4 MSTORE PUSH1 0x24 PUSH1 0x0 REVERT JUMPDEST POP DIV SWAP1 JUMP INVALID LOG2 PUSH5 0x6970667358 0x22 SLT KECCAK256 MSTORE 0xD RETURN SWAP9 GAS 0xF8 0xAB SWAP9 MSTORE BASEFEE EQ DUP16 0xEA 0xA6 0xAB 0x4E COINBASE 0xD3 0x1F 0x4F 0xAC 0x2D 0x2E 0xEB SAR DUP12 KECCAK256 CODESIZE SWAP10 DUP7 CHAINID 0xC2 PUSH5 0x736F6C6343 STOP ADDMOD EQ STOP CALLER "},"methodIdentifiers":{"addAuthorizedContract(address)":"98eaa4a7","authorizedContracts(address)":"d5b9221b","depositToAave(uint256)":"68fd2d80","emergencyWithdraw(uint256)":"5312ea8e","getATokenBalance()":"00c2d143","getAavePosition()":"f9ec99ac","getAccruedInterest()":"564afa3a","getContractBalance()":"6f9fb98a","getTotalDeposited()":"b68ef559","lastInterestCalculation()":"86f6a828","mockAToken()":"e8390f77","mockLendingPool()":"1354f095","owner()":"8da5cb5b","pause()":"8456cb59","paused()":"5c975abb","removeAuthorizedContract(address)":"e6b165ed","renounceOwnership()":"715018a6","setAaveContracts(address,address)":"85c7803d","totalDeposited()":"ff50abdc","totalInterestEarned()":"b7d93f34","totalPosition()":"17fbe354","transferOwnership(address)":"f2fde38b","unpause()":"3f4ba83a","updateInterest()":"d1482791","withdrawForContract(uint256,address)":"a2b89944","withdrawFromAave(uint256)":"688f237b"}}}}}